:020000040800F2
:1000000010CB0120CD4C0008090700080B070008A1
:100010000D0700080F070008110700080000000086
:1000200000000000000000000000000013070008AE
:100030001507000800000000BF4A0108E96D00082C
:10004000E74C0008E74C0008E74C0008E74C0008C4
:10005000E74C0008E74C0008E74C0008E74C0008B4
:10006000E74C0008E74C0008E74C0008E74C0008A4
:10007000E74C0008E74C0008E74C0008E74C000894
:10008000E74C0008E74C0008E74C0008E74C000884
:10009000E74C0008E74C0008E74C0008E74C000874
:1000A000E74C0008E74C0008E74C0008E74C000864
:1000B000E74C0008E74C00086F300108E74C0008E7
:1000C000E74C0008E74C0008E74C0008E74C000844
:1000D000E74C0008FB71000895700008E74C000829
:1000E000E74C0008E74C0008E74C0008E74C000824
:1000F000E74C0008E74C0008E74C0008E74C000814
:10010000E74C0008ED310008E74C0008E74C000818
:10011000E74C0008E74C0008E74C0008E74C0008F3
:10012000E74C0008E74C0008E74C0008E74C0008E3
:10013000E74C0008E74C0008E74C0008E74C0008D3
:10014000E74C0008E74C0008E74C0008E74C0008C3
:10015000E74C0008E74C0008E74C0008876F0008F0
:10016000E74C0008E74C0008E74C0008E74C0008A3
:10017000E74C0008E74C0008E74C0008E74C000893
:10018000E74C0008E74C000800F002F800F07AF8AD
:100190000AA090E8000C82448344AAF10107DA45E2
:1001A00001D100F06FF8AFF2090EBAE80F0013F0BA
:1001B000010F18BFFB1A43F001031847B4FA0300FC
:1001C000D4FA030010F8013B0A4413F0030408BFFB
:1001D00010F8014B1D1108BF10F8015B641E05D01B
:1001E00010F8016B641E01F8016BF9D1002D15D0D8
:1001F00010F8014B03F00C030C2BA1EB04040ABF15
:1002000010F8013BA4EB8314A4EB032405F10103D4
:1002100014F8016B5B1E01F8016BF9D5914238BFF0
:1002200010F8013BD1D3704700230024002500269D
:10023000103A28BF78C1FBD8520728BF30C148BF49
:100240000B607047642913F0BB84752913F0B884E0
:10025000782913F0F184632914F04D81732914F087
:100260005281002070471FB521F04CFD14F008FCAE
:1002700004000020002121F005F9401C60601FBD32
:1002800010B510BD14F0C0FB1146FFF7ECFF00F0F5
:1002900066F914F0E7FB03B4FFF7F2FF03BC06F0C6
:1002A00017FE000030BF72B6704762B6704780F329
:1002B000088870470EB5E74D02AC082641F2883732
:1002C0002888012803D1E449E4A004F055FBCDE9D6
:1002D000006400213B460A22084610F010FCEFE7BC
:1002E0000EB541F2883602AC08254FF47A7703F058
:1002F00089FC304606F0C6FD0022CDE900543B469D
:100300001146104610F0FBFBF1E70EB54FF47A767C
:1003100002AC082540F2DC57304606F0B3FD00225F
:10032000CDE900543B461146104610F0E8FBF3E7D8
:100330000EB502AD082440F2DC56002233461146C9
:100340001046CDE9004510F0DAFBF6E70EB5C54CD6
:1003500002AD082640F2DC57D4F8900288B10020A4
:10036000C4F89002D4F8980268B10020C4F898024A
:100370000022CDE900653B461146104610F0BFFB58
:10038000EAE70120ECE70120F0E70EB502AD082412
:1003900017F0A6FA0022052311461046CDE90045C4
:1003A00010F0ADFBF4E70EB502AD082440F2DC56C8
:1003B00011F00FFD0022334611461046CDE90045ED
:1003C00010F09DFBF4E72DE9F0478AB00BF0C5F97A
:1003D00009A80FF052F8012109AA08460CF015FCF3
:1003E0000121080305F07DF904201BF0FFF816F049
:1003F00035FA0BF087FADFF870A29AF80010491C62
:100400008AF800100BF082FA00240326CC21CDE9F3
:10041000064609AD05940427944A08950097CDE94E
:1004200001214FF400602346AFF28502CDE90304B9
:100430008E488FA1C4380FF0B6FA4FF06609CDF898
:100440000890CDE906468E4A0594CDE900724FF436
:10045000806808950023AFF2CD028948CDE9038476
:1004600088A1C4380FF09FFACDE9064619210594FA
:10047000874A08950097CDE90121B8010023AFF222
:100480003312CDE90304824882A1C4380FF08BFAFD
:10049000CDF80890CDE90646814A0594CDE9007271
:1004A00008950023AFF277127D48CDE903847DA142
:1004B000C4380FF078FACDF80890CDE906467C4AAA
:1004C0000594CDE9007208950023AFF2C112784877
:1004D000CDE9038477A1C4380FF065FACDF8089010
:1004E000CDE90646764A0594CDE9007208950023C9
:1004F000AFF213227248CDE9038472A1C4380FF021
:1005000052FACDF80890CDE90646714A0594CDE936
:10051000007208950023AFF263226D48CDE9038491
:100520006CA1C4380FF03FFA09A96D4810F035F8F6
:100530000BF0E8F99AF80010491E11F0FF018AF853
:10054000001009D16749098831B10BF0DFF90CF0CF
:10055000D1FE0AB0BDE8F0870BF0D8F9F9E762A048
:100560008CB0D0E90010CDE90910A82006F04AFCB3
:100570004FF4A06004F0CAFB4FF4E134204606F0CB
:10058000B1FC204606F02EFD4FF4165006F0C8FDD3
:1005900000F0FDFB00F07EF902F0EEFE03F0F4FA4D
:1005A000002006F099FE022006F096FE06F06AFF93
:1005B0004F4801224FA1006808F06EFE03F012F9C7
:1005C0004D480068804704F06FFA03F0DDF909A890
:1005D00003F0F4FC09A803F07AFC204603F074FD54
:1005E0000BA80CF0A8F90BF08DF91F4C2178491CD1
:1005F00021700BF08BF9002006AB0BAA03210590AC
:1006000083E8070066234FF48062CDE90232344D5F
:100610000490C4350346AFF25122CDE9001537A14D
:100620002F480FF0C0F90BF06DF92178491E11F039
:10063000FF01217007D12B49098821B10BF066F920
:100640000CF058FE01E00BF061F90BA80CF099FBDF
:10065000FEE700006C0700209CC1012073686961FF
:100660006E000000008040429801002050350020BC
:10067000456D77696E7569207461736B00000000C9
:10068000C81F0020546F756368207461736B00008D
:100690008C3000204C656430207461736B00000066
:1006A000145600205348543330207461736B00009B
:1006B0009C77002050525443207461736B000000FB
:1006C000D8660020434F32207461736B0000000035
:1006D0006088002057494649207461736B00000010
:1006E000400E00205C0100201606140E0E060000CD
:1006F0006CA50120303A0000300000207374617254
:1007000074207461736B00007047FEE7FEE7FEE73C
:10071000FEE77047704700000CB500225449009274
:100720000192086840F4803008604FF4A0430868E4
:1007300000F4003001900098401C0090019810B91E
:1007400000989842F3D10868800334D501200190C5
:1007500047484030026842F08052026045480268D3
:1007600042F4404202604248083002680260026877
:1007700042F400420260026842F4A0520260031F89
:100780003D4A1A600A6842F080720A600A68920163
:10079000FCD53A4940F205720A60016821F0030174
:1007A0000160016841F0020101600168C1F381014B
:1007B0000229FAD10CBD01920CBD314810B5016877
:1007C00041F4700101602A48016841F001010160B3
:1007D000274A00210832116002682A4B1A40026041
:1007E000031D294A1A60026822F480220260204810
:1007F0000C300160FFF790FF21494FF00060803915
:10080000086010BD70B51A4D083528681F4B204987
:1008100010F00C0004D05E10042803D0082803D088
:100820000B601BE00E6019E0114A121D1068C0F346
:100830008054106800F03F0014B1B6FBF0F001E006
:10084000B3FBF0F013681268C3F388135843C2F384
:100850000142521C5200B0FBF2F0086028680C4ABA
:10086000C0F30310121D105C0A68C2400A6070BD1C
:10087000003802400070004008544007003C02402D
:1008800088ED00E0FFFFF6FE103000240024F400A5
:10089000000000201CB50121022004F022FFF820F6
:1008A000009001208DF8040000208DF806008DF8DE
:1008B00007000320054C8DF805006946204604F02A
:1008C0000DFDF821204604F06EFD1CBD0004024021
:1008D000FE49088070474FF0C2410880704708B554
:1008E0004FF0C2400088ADF80000BDF8000008BD20
:1008F000F64A1080901C01807047F44910B50880BA
:100900000F2006F0A0FABDE81040E8E7F048EF49F4
:100910000089088070474FF0C24108807047C0F3DB
:100920004511C20AC00200EB4110104480B270476A
:10093000401EC0B2FCD27047F0B5E54ADFF88CC368
:100940000B0A948856899589020AA4F514474FF03A
:10095000C24E863F1AD0A4F5EE47963F16D0A4F5B6
:100960001347413F03D0A4F5A647103F0DD1ACF883
:100970000060AEF80020C0B2AEF80000ACF8005045
:10098000AEF80030C8B2AEF80000F0BDACF80060C0
:10099000AEF80020C4B2AEF80040AEF80020C0B2FD
:1009A000AEF80000ACF80050AEF80030C8B2AEF8B7
:1009B0000000E5E710B5C64C2288824212D9628851
:1009C0008A420FD9FFF7B8FFA088C049A0F51342AB
:1009D000413A09D0A0F51442863A23D0A0F5EE4260
:1009E000963A1FD0002010BD2E200880FFF777FF19
:1009F0000220401EC0B2FCD2FFF771FF0446022164
:100A0000491EC9B2FCD2FFF76AFFE1B24FF6FF728E
:100A100002EA012124EA6212890A42EA411141EA0A
:100A2000D02010BD2E200880FFF759FF0220401E65
:100A3000C0B2FCD2FFF753FF0221491EC9B2FCD25B
:100A400010BDA3488088A0F51441863907D0A0F5D1
:100A5000EE41963903D0A0F51341413902D19B49AB
:100A60002920088070479A488088A0F5144186396B
:100A700007D0A0F5EE41963903D0A0F513414139D6
:100A800002D19249282008807047914B10B59A797D
:100A90000021012A16D1082814D2DFE800F004064C
:100AA000080A0C0E101206200CE007200AE00420B1
:100AB00008E0052006E0012004E0002002E0032019
:100AC00000E002209A88A2F51444863C07D0A2F5E3
:100AD000EE44963C03D0A2F51344413C37D108289C
:100AE00012D2DFE800F0110406080A0C0E10802173
:100AF0000AE0402108E0C02106E0202104E0602156
:100B000002E0A02100E0E0213620A2F5D04441F02F
:100B10000801043C01D141F00201FFF7E9FE6B4CF2
:100B2000588920800021A01C018001801988491E5D
:100B30000A0A0280C9B201809989218000210180BE
:100B400001805988491E0A0A0280C9B2018010BD7D
:100B500000B5FFF7F1FEFFF7D9FE5E484FF0C24146
:100B60000088088000BD2DE9F047DFF864919246C7
:100B70004A46B9F8045057899689DFF850C10C0AE3
:100B8000030AA5F514484FF0C242B8F1860804D014
:100B9000A5F5EC48B8F5CB7817D1ACF80070138008
:100BA00000F0FF08A2F80080138000F0FF08A2F810
:100BB0000080ACF80060148001F0FF08A2F800800B
:100BC000148001F0FF08A2F80080A5F51348B8F1E1
:100BD000410804D0A5F5A048B8F5447809D1ACF88F
:100BE00000701380C0B21080ACF800601480C8B2EE
:100BF0001080B9F80800ACF80000A2F800A0BDE829
:100C0000F0872DE9F007324B49F241362C279988BD
:100C10004FF02A0C4FF02B094FF4F07A4FF0F00808
:100C20004FF4A07449F2864547F29672D0B1012084
:100C300098711C80A3F80280A94203D0914201D090
:100C4000B14204D11F81A3F80AC0A3F80C90A942B5
:100C500001D0914202D1A3F800A05C80BDE8F0076A
:100C6000012012E700209871A3F800805C80A9425F
:100C700003D0914201D0B142F0D11F81A3F80AC044
:100C8000A3F80C90A94201D09142E7D11C80A3F8AF
:100C900002A0E3E7F0B50244521E94B2CA180C4E0B
:100CA000521E93B2B288A2F51445863D07D0A2F534
:100CB000EE45963D03D0A2F51345413D1CD1034FAF
:100CC00072893A80050ABA1C158005E0FEFFFF60B4
:100CD0006098002014000020C0B21080200A10800C
:100CE000E0B21080B0893880080A1080C8B2108045
:100CF000180A1080D8B21080F0BD2DE9F041F84FED
:100D00000646002439887D88F6A04D4312F0E8FE9F
:100D10007988F7A012F0E4FE2946F9A012F0E0FE6F
:100D2000B8884FF0C248A0F5144186390BD0A0F521
:100D3000EE41963907D000210846FFF7FDFDFFF789
:100D4000E5FD40461FE0F34B7889188000214046BE
:100D5000A8F80010A8F8001039880A0AA8F800209E
:100D6000C9B2A8F80010B98919800021A8F80010AC
:100D7000A8F8001079880A0AA8F80020C9B20180F2
:100D8000DDE70680641CAC42FBD3BDE8F0812DE9B1
:100D9000F043A1B0002401211820209404F0A1FC0C
:100DA0000121084604F0B1FC01268DF87C6040204A
:100DB0008DF87E400225DFF860931E908DF87D50FF
:100DC0008DF87F601EA9484604F088FA8DF87C50A3
:100DD0004CF2B3708DF87E400327DFF840831E90FD
:100DE0008DF87D708DF87F601EA9404604F076FA7C
:100DF0008DF87C504FF684708DF87E401E908DF8F3
:100E00007D708DF87F601EA9484604F067FA0C22B9
:100E10000821404604F0D6FA0C220921404604F08D
:100E2000D1FA0C220A21404604F0CCFA0C220E2101
:100E3000404604F0C7FA0C220F21404604F0C2FAE3
:100E40000C220021404604F0BDFA0C22012140464C
:100E500004F0B8FA0C220421404604F0B3FA0C2244
:100E60000521404604F0AEFA0C220721404604F06A
:100E7000A9FA0C220221484604F0A4FA0C22072108
:100E8000484604F09FFA0C220821484604F09AFADA
:100E90000C220921484604F095FA0C220A21484602
:100EA00004F090FA0C220B21484604F08BFA0C2235
:100EB0001146484604F086FA0C220D21484604F0FB
:100EC00081FA0C220E21484604F07CFA0C220F21F4
:100ED000484604F077FA0A20CDE90850CDE90A54D3
:100EE0000C940D940E94CDE90150CDE90354059472
:100EF000069407940F9410201094CDE91140139498
:100F00001594149400021694CDE917408000CDE9A1
:100F1000194008A8CDE91B4001A81D900FA803F0B7
:100F200060FF0121002003F0D5FF6D4947F2967064
:100F30004FF4FA758880284605F0A4FF754C1121FE
:100F40002180284605F09EFFF0202080C321A01CB0
:100F50000180F021218096212180362121800021ED
:100F600001803A21218005210180E8212180402152
:100F70000180822101800721018018210180272121
:100F800001800A210180B621018033210180C52121
:100F9000218027210180C2212180A7210180E02119
:100FA0002180F021018001210180062101800F2193
:100FB0000180122101801D210180362101805421F0
:100FC0000180442101800C2101801821018016211B
:100FD00001801321018015210180E1212180F02170
:100FE000018001210180052101800A2101800B215E
:100FF000018007210180322101804421018001808C
:101000000C2101801821018017210180132101800A
:1010100016210180F02121803C210180F0212180D6
:1010200069210180680005F02DFF29202080002023
:10103000FFF7E7FD4FF4FC60FFF75FFE21B0BDE86E
:10104000F0832DE9F043804625481746DDF81C90D3
:1010500080881E46A0F51442863A0BD0A0F5EE42D9
:10106000963A07D0A7EB0800401C84B20D464FF01B
:10107000C24721E00D460CE0444606E04A462946B8
:101080002046FFF770FD641CA4B2BC42F6D36D1C71
:10109000ADB2B542F0D3D2E729464046FFF74CFC4B
:1010A000FFF734FC002003E0A7F80090401C80B25A
:1010B000A042F9D36D1CADB2B542EDD9BFE72DE921
:1010C000F0478246A2EB0A00401C0E4685B2981BF0
:1010D000401C87B200244FF0C249DDF8208034E084
:1010E000609800202077696474683A25780D0A00BA
:1010F000206865696768743A25780D0A0000000069
:1011000020746F74616C706F696E743A25640D0A97
:1011100000000000FEFFFF6000100240000C0240D3
:10112000301981B25046FFF707FCFFF7EFFB0020B4
:10113000494606E004FB050338F813200A80401CEA
:1011400080B2A842F6D3641CA4B2BC42E8D356E5F0
:101150002DE9FE4F0026A2EB000882465F1A701EA2
:1011600035468946B8F1000F02DD4FF0010102E07B
:1011700003D14FF00001019102E0C8F10008019095
:10118000002F02DD4FF0010002E003D14FF000001C
:10119000009002E0C7F1000700904046B84501DD2D
:1011A000044600E03C46601C4FF0000B029015E046
:1011B0001FFA89F11FFA8AF0FFF7CAFC46443D4442
:1011C000A64202DD0199361B8A44A54202DD009940
:1011D0002D1B89440BF101001FFA80FB02998B45FE
:1011E000E6DDBDE8FE8FF0B51C4615460E46074607
:1011F0000B46FFF7ADFF3A46234631461046FFF750
:10120000A7FF23462A4619463846FFF7A1FF2A467C
:1012100023463146BDE8F040104699E72DE9FC4FE2
:1012200080460024154603200F46A0EB450649E002
:10123000781B81B208EB040A01901FFA8AF0FFF7CD
:1012400087FC381B81B208EB050900901FFA89F072
:10125000FFF77EFC07EB040B1FFA8BF11FFA89F0F6
:10126000FFF776FC07EB05091FFA89F11FFA8AF0F0
:10127000FFF76EFCA8EB040A1FFA89F11FFA8AF047
:10128000FFF766FCA8EB05091FFA8BF11FFA89F03E
:10129000FFF75EFC019881B21FFA8AF0FFF758FC55
:1012A000009881B21FFA89F0FFF752FC641C002EEF
:1012B00003DA06EB8406B61D04E0601B06EB80062D
:1012C0006D1E0A36AC42B3DDBDE8FC8F2DE9F84F48
:1012D00082461F460C468B46580700D0012000EB83
:1012E000D700790810FB01F0203AC0B202F0FF09E4
:1012F0000026009041E00C2F10D0102F12D0182F94
:101300003ED1774909EBC90001EB80004FF000089E
:10131000855D28060AD5734802880BE009EB490071
:101320007149F1E7714901EB0910EFE70A9828B913
:101330006C48428821465046FFF715FC6806050EAA
:101340006B48641CA4B24088A04219D9A4EB0B00DE
:10135000B84209D10AF101001FFA80FA64485C46DC
:10136000018851450CD906E008F1010000F0FF08A2
:10137000B8F1080FCDD3761CF6B200988642BAD3E6
:10138000BDE8F88F0346012000E05843491EC9B26A
:10139000FBD270472DE9FF4F81B00027DDF838B050
:1013A0001D46924680463C46B9464FEA5B0627E01A
:1013B000281B401EC1B20A20FFF7E4FFBAFBF0F081
:1013C0000A21B0FBF1F201FB120027B9691E8C4221
:1013D00001DA48B101273030C2B206FB048080B286
:1013E0005B46CDF8009006E006FB048080B25B46C9
:1013F0002022CDF800900299FFF768FF641CE4B248
:10140000AC42D5D305B0BDE8F08F2DE9FF4F81B0D8
:101410008046DDF83CA00E984FF000091F46934629
:101420004C460AF0010546082BE0381B401EC1B2AD
:101430000A20FFF7A7FFBBFBF0F00A21B0FBF1F297
:1014400001FB1200B9F1000F05D1791E8C4202DABE
:1014500048B14FF001093030C2B206FB048080B2BF
:1014600000950E9B08E05FEA0A6006FB04800E9B75
:1014700080B2009508D530220299FFF727FF641C3F
:10148000E4B2BC42D1D3BDE72022F5E72DE9F84F05
:10149000044600F0FF0810190D46DDE90A761FFA30
:1014A00080FA58191FFA80F94FF0000B11E05445EB
:1014B00002D3E819444685B24D450FD23B46294632
:1014C0002046CDF800B0FFF701FF04EB570084B2CF
:1014D000761C3278A2F120005E28E8D950E700009F
:1014E00072270208140000200E1D02088221020843
:1014F00060980020012005F0A6BC7CB501210220E7
:1015000004F0EFF84FF44060012400908DF804409F
:1015100000258DF8065002208DF80500BA4E8DF892
:1015200007406946304603F0D9FE600300908DF80D
:1015300004508DF8065003208DF805008DF8074003
:101540006946304603F0CAFEA102304603F02BFF85
:10155000E102304603F027FF7CBD70B5AA48016860
:1015600021F440010160016841F480010160A74C51
:101570000120C4F8AC02C4F8A80204F52A7405F0EE
:1015800062FC00256560012005F05DFC256070BDF2
:1015900070B59D48016821F440010160016841F483
:1015A00080010160994C0020C4F8A802C4F8AC0284
:1015B000012004F52A7405F046FC01252560284623
:1015C00005F041FC656070BD70B58F48002401686E
:1015D00021F440010160016801608C4D0126C5F8CD
:1015E000AC62304605F02FFC44F6206007E0641C36
:1015F000A4B2844203D9FFF7CBFF012070BDD5F818
:101600002C120029F3D1C5F8A862042005F01BFCB8
:101610000020C5F8A80270BD70B57C4C0025C4F848
:10162000A8527948016821F440010160016841F441
:1016300080010160C4F8AC52012004F52A7405F061
:1016400002FC022005F0FFFB0120206005F0FBFBFF
:10165000256070BD70B56D4C0026C4F8A8626A485C
:10166000016821F440010160016841F480010160DA
:101670000125C4F8AC52284604F52A7405F0E3FBB2
:101680002560012005F0DFFB266070BD2DE9F041EB
:1016900005465D48016821F440010160016841F49C
:1016A00080010160594E0027C6F8A8723C464FF0F1
:1016B0000108E809C6F8AC026806050EC6F8A8825B
:1016C000012005F0C0FBC6F8A872012005F0BBFBA5
:1016D000641CE4B2082CECD3BDE8F0812DE9F0479E
:1016E0004A4E002481462746C6F8A842464801686B
:1016F00021F44001016001680160012005F0A3FBB5
:1017000000254FF00108C6F8A872012005F09BFBE8
:10171000C6F8A882022005F096FB6006040ED6F8F3
:101720002C0208B1641CE4B26D1CEDB2082DEAD3A2
:10173000B9F1000F04D0FFF76FFF2046BDE8F08736
:10174000FFF788FFF9E72DE9F04115460E460446FC
:101750000027FFF702FF3420FFF798FFFFF734FF61
:101760002BA012F0BDF9200AFFF790FFFFF72CFF26
:101770002CA012F0B5F9E0B2FFF788FFFFF724FFC5
:101780002CA012F0ADF9002408E0305DFFF77EFFD9
:10179000FFF71AFF070003D1641CE4B2AC42F4D394
:1017A000FFF7F6FE384697E72DE9F04115460F465C
:1017B0000446FFF7D2FE3420FFF768FFFFF704FF6F
:1017C000200AFFF763FFFFF7FFFEE0B2FFF75EFFBF
:1017D000FFF7FAFEFFF7C1FE3520FFF757FFFFF7CF
:1017E000F3FE00246E1E09E0B44201D0012000E0A7
:1017F0000020FFF773FF3855641CE4B2AC42F3D30A
:10180000BDE8F041C4E60000000402400080404210
:101810000D0A0D0A20312061636B206F6B2E200DA5
:101820000D0A000020322061636B206F6B2E200DAB
:101830000D0A000020332061636B206F6B2E200D9A
:101840000D0A000070B5D14D0024C5F8B8429020B3
:1018500005F52E7500F0A8F9002000F0A5F900208C
:1018600000F0A2F9002000F09FF9FF2000F09CF9A1
:1018700044EA0024FF2000F097F920430121296069
:1018800070BD7CB50121022003F02BFF0121402017
:1018900003F027FF4FF48040012400908DF80440AE
:1018A00000208DF8060003208DF805008DF8074014
:1018B0006946B74803F012FD8020B64D0090694696
:1018C000284603F00BFD8021284603F06CFDAF484D
:1018D000C0F8B84200F080F9002000F0DAF9FFF714
:1018E000B1FFAD4908807CBD10B5A84C0020C4F8FC
:1018F000B802052004F52E7400F056F9FF2000F020
:1019000053F90121216010BD70B5A04C002105469E
:10191000C4F8B812012004F52E7400F045F92846E9
:1019200000F042F90120206070BD10B5974C0020F6
:10193000C4F8B802062004F52E7400F035F9012031
:10194000206010BD10B5914C0020C4F8B8020420EE
:1019500004F52E7400F028F90120206010BD2DE957
:10196000F0418A4F0646002015460C46C7F8B802DB
:10197000032000F019F9C4F3074000F015F9C4F38F
:10198000072000F011F9E0B200F00EF9002405E0A4
:10199000FF2000F009F93055641CA4B2AC42F7D323
:1019A0000120C7F8B802BDE8F08110B5FFF79CFF31
:1019B000C007FBD110BD2DE9F04115460C46064687
:1019C000FFF7B3FF714F0020C7F8B802022000F004
:1019D000EBF8C4F3074000F0E7F8C4F3072000F089
:1019E000E3F8E0B200F0E0F8002404E0305D00F03D
:1019F000DBF8641CA4B2AC42F8D30120C7F8B802EB
:101A0000BDE8F041D1E72DE9F0410746C8B2C0F585
:101A100080740E461546A24200D814464FF48078D2
:101A2000224631463846FFF7C6FFA542BBD0281BE9
:101A30002744264485B24446A542F1D82C46EFE718
:101A4000B1E770B50446014654A012F049F82403EA
:101A5000FFF76BFFFFF7A9FF4C4D0020C5F8B80258
:101A6000202005F52E7500F09FF8C4F3074000F024
:101A70009BF8C4F3072000F097F8E0B200F094F868
:101A800001202860BDE870408FE72DE9F05FC1F3C9
:101A90000B06DFF810810F0BC6F580548A4681468D
:101AA0001546A24200D8144639038B464FF48052A3
:101AB0004046FFF754FF002006E0321818F80210E5
:101AC000FF2903D1401C80B2A042F6D3A04221D20C
:101AD0003846FFF7B6FF002006E019F8002083190A
:101AE000401C08F8032080B2A042F6D359464FF4B8
:101AF00080524046FFF787FFA5420FD0281BA14424
:101B0000A244002685B24FF480547F1CA542CBD856
:101B10002C46C9E7224651464846EBE7BDE8F09F10
:101B200010B5FFF702FFFFF740FF184C0020C4F884
:101B3000B802C72004F52E7400F036F801202060AA
:101B4000BDE8104031E710B5104C0020C4F8B802D1
:101B5000B92004F52E7400F027F801202060BDE8BC
:101B60001040032005F06FB910B5084C0020C4F8F0
:101B7000B802AB2004F52E7400F016F801202060A6
:101B8000BDE81040032005F05EB90000008040422F
:101B900000040240001802401800002066653A2543
:101BA000780D0A006E98002070B5404C0546022161
:101BB000204605F0D0F80028F9D02946204605F047
:101BC0009DF80121204605F0C6F80028F9D02046EE
:101BD00005F092F8C0B270BD2DE9F043012187B045
:101BE000084603F07EFD4FF480590121484603F07A
:101BF000A0FD02278DF8187000248DF81A400320EC
:101C00008DF81900DFF8A8803826012505968DF893
:101C10001B5005A9404603F061FB05220321404605
:101C200003F0D0FB05220421404603F0CBFB052244
:101C30001146404603F0C6FB0121484603F0ABFDC8
:101C40000021484603F0A7FDADF800404FF4827034
:101C5000ADF80200ADF808506802ADF80C60ADF8C0
:101C60000440ADF80A00ADF80E4007200F4CADF867
:101C70001000ADF806706946204604F045FF0121CA
:101C8000204604F0D5FFFF20FFF78EFF07B0BDE828
:101C9000F08301460548028822F03802028002885B
:101CA0000A430280012104F0C3BF0000003001405C
:101CB00000040240FE4900200860091D0860091D5B
:101CC0000860091D0860FA4924310860091D086090
:101CD000091D0860F64AF74938321160111D086085
:101CE00070470021012803D010B126210846704713
:101CF000F14A5070FAE7EE4A121D116821F0FF0117
:101D00000143116070472DE9FC5F0024EB4F009404
:101D10004FF4806801944025C7F81080C7E9025449
:101D20000E464FF0080B1021C7E900B1A146384616
:101D300004F00EFE102001F0D3FA002851D1DE4845
:101D4000AA464D460089000438603720C7E9010AD9
:101D5000C7E90398384604F0FBFD372001F0C0FACC
:101D600000283ED1411E07F11400C0E9001B3021BC
:101D700081600221C0E903150121416104F00EFEDA
:101D80003320C7F808A0C7E90050C7E90358384610
:101D900004F0DEFD332001F0A3FA050021D1DFF8C5
:101DA00010834FF4001A6F4608F1340840F22A6994
:101DB000D8F8000010EA090F0BD1504604F04DFE90
:101DC0000028F5D004F00EFE47F82400641C012C16
:101DD000EED9082004F041FE28B1082004F046FEA8
:101DE0000420BDE8FC9F022004F037FE20B1022051
:101DF00004F03CFE0220F4E7202004F02EFE20B187
:101E0000202004F033FE0620EBE74FF40074204658
:101E100004F023FE20B1204604F028FE0720E0E76E
:101E200040F2FF5004F022FE009800BA7060019862
:101E300000BA30602846D4E72DE9FC4700248146EB
:101E400000942046019404F0A2FD800102D50E20EA
:101E5000BDE8FC87984D6946288980B2FFF753FF9B
:101E60000028F5D13720954E01994FF0060A4FF022
:101E700040084FF48067B9F1010F1ED0C90334D573
:101E80002989C6F808800904C6E90010C6E9034795
:101E9000304604F05DFD372001F022FA0028D7D14A
:101EA000C6F80880C6E9004AC6E90347834804F03B
:101EB0004FFD062001F014FACAE7490315D5298918
:101EC000C6F808800904C6E90010C6E903477B4844
:101ED00004F03EFD372001F003FA0028B8D10220BB
:101EE000C6F80880C6E9000ADEE72520B0E72DE93C
:101EF000F0410146704800240078032814D018B13E
:101F0000012801D0022827D1B1F5805F0CD06B4E9B
:101F10004FF400670025183EB9420ED10120FFF7AB
:101F20008BFF040003D017E02720BDE8F081357552
:101F300035607560C6E9025709E00020FFF77CFFB5
:101F4000040009D1357535607560B560F5605B4892
:101F50003561183804F0D2FC2046E6E7574910B541
:101F6000086007204860402088600020C8604FF467
:101F700080600861084604F0EBFCBDE810400720D3
:101F800001F0AEB92DE9F0434B49DFF830910C7800
:101F900080F85640098909F12C09A0F85410D9F8A5
:101FA00000100A0E95090570C2F38305457002F012
:101FB000030282700A0CC2700A0A02714171D9F8D8
:101FC0000430190E0901C180C288C3F3074142EAF7
:101FD0001112C28001F00F010172C3F30721CA0977
:101FE0004272C1F380128272C1F34012C272C1F315
:101FF00000120273002545734A464FF001089268AB
:10200000160EC2F30747C2F3072C34B1012C04D0DB
:10201000032C02D0022C39D057E08907090D016149
:10202000D9B2036943EA81010161016941EA96116C
:102030000161C6F3C201017506F007014175790916
:102040008175C7F38201C175B907490F0176037E17
:10205000614643EAD11303760469067EB61C08FA8A
:1020600006F3DF17641CA4FB036C05FB03C304FB2E
:102070000734077A08FA07F3A6FB037C036504FB21
:1020800003C306FB0533C0E912731EE09906890AF3
:102090000161016941EA0621016101693943016178
:1020A000036961465B1CEC0444EA5334DB0407E03B
:1020B000002C0140FF07C0001C00002088A8002061
:1020C000C0E912344FF400730365C1F38013437603
:1020D0008906490E00F81A1FD1B2027842EAD112DD
:1020E00000F8012B01F07F0100F8011BD9F80C204A
:1020F000110ECB0900F8013BC1F3411300F8013B7D
:10210000C1F3820300F8013B8907090F01700378CE
:10211000C2F3074143EA911300F8013BC1F34013B6
:102120000370457001F001018170C2F30721CB09F2
:10213000C370C1F380130371C1F340134371C1F342
:1021400000138371C1F38103C37101F003010172B4
:10215000C2F34601417280F80A80FE4A11680B0EF4
:1021600003730B0C1B02C381C489C1F307231C43F7
:10217000C48109060161516804690B0E44EA0343F6
:1021800003610469C1F3074344EA0323036104695B
:10219000C1F307231C430461017591680B0E43755D
:1021A0000B0C1B0683618469C1F3072344EA0343D4
:1021B00083618369C9B243EA01218161D16883697E
:1021C00043EA11638361037FC1F3074243EA1213B9
:1021D00003771207120DC283C38BC1F30722134387
:1021E000C383C1F3460180F8201080F8218028467F
:1021F000BDE8F08310B5D84A0024116811F0450FEE
:10220000FBD0480702D50324042003E0C80705D00B
:102210000124204604F02AFC204610BD40F2FF5065
:10222000F8E72DE9F84F01200024ADF8000004F094
:1022300089FBA8B3DFF8249399F8000004286AD03A
:10224000C44D4FF0C00A3C3D00260220C5F808A04E
:10225000C5E900604FF48068C5E90368284604F0CA
:1022600077FBFFF7C7FF04001CD104F090FBB94FC8
:102270003860042004F08BFB7860082004F087FBB2
:10228000B8600C2004F083FBF86099F800004F461A
:1022900050B1012808D0062806D0022804D014E046
:1022A000FFE72520BDE8F88F0320E5E80260402025
:1022B00085E84101A748083D3C3804F049FB6946E0
:1022C000032001F01DF80400ECD13878042822D056
:1022D000BDF80000B860000428600920C5E9010AC3
:1022E000C5E903689B483C3804F032FBFFF782FFE6
:1022F0000400D7D104F04BFB964D103D286004201C
:1023000004F045FB6860082004F041FBA8600C2045
:1023100004F03DFBE8602046C4E72DE9F84F0027B4
:102320008C4876215438BB4601750760476087604A
:10233000C7603D463E46B8465C46076104F0DEFA9B
:10234000032004F0FBFA012004F0F4FADFF804A201
:102350004FF48061AAF13C0A5046CAF80040CAF81E
:102360000440CAF80840CAE9034104F0F1FAB9464A
:102370004FF4803401E0641E27D0802004F06DFB10
:102380000028F8D00CB340F2FF5004F06FFB484631
:1023900000287CD14FF4D570CAF800000820CAF894
:1023A0000400D9460AF1080140204FF4806B81E80F
:1023B000010A684854463C3804F0CAFA664B0022C9
:1023C0004FF4803019689A4604E00320E0E7DAF819
:1023D0000010401E11F0450F06D008B1480706D581
:1023E00003220420009207E00028F0D1F8E7480615
:1023F00005D500224020009204F038FB009A12B369
:102400003721C4E900914021C4F810B0C4E9021991
:1024100050483C3804F09CFA372000F061FF4D48EA
:1024200000223C383721C0E900214FF04009C0F8B4
:1024300010B0C0E9029204F08BFA372000F050FF90
:1024400004003DD04DE0454801214FF08048017027
:10245000E5E7404C00263C3C3720C4F80890C4E92E
:102460000060C4E9036B5F46204604F071FA372030
:1024700000F036FF00280AD1394948EA01002060FF
:102480002920C4E90109C4E90367204600E021E0EE
:1024900004F05EFA00245146086810F0450FFBD0A6
:1024A000400702D50324042001E040F2FF5004F06D
:1024B000DDFAB4B9002004F06AFAC60F07466D1CB5
:1024C0001EB94FF6FF708542C3D34FF6FF708542A9
:1024D00001D31B20E6E617F0804F02D01F480221EF
:1024E00001702046DEE6FEB501211E4803F0F9F832
:1024F0000121CC02204603F01CF90121204603F003
:102500004AF94FF47C50009002208DF804008DF8B9
:102510000500154E01258DF807506946304602F03A
:10252000DDFE0420114F00906946384602F0D6FEC9
:102530000C220821304602F045FF0C2209213046CA
:1025400002F040FF0C220A21304602F03BFF0C2231
:102550000B210DE0C4A80020342C01401C000020F9
:10256000000010800C00400000080240000C0240F7
:10257000304602F027FF0C221146304602F022FFBF
:102580000C220221384602F01DFF0021204603F0F4
:1025900002F9FFF78FFB04F0A5F931208DF8080050
:1025A00000208DF809008DF80A008DF80B5002A864
:1025B00002F0B1FBFFF7B1FE88B9FFF732FE70B948
:1025C000FA48FFF7DFFC50B9F848B0F854000004AF
:1025D000FFF7C4FC18B92046FFF789FC18B1F4498D
:1025E0000978032905D10020FFF785FB0020FFF7BC
:1025F00078FBFEBD10B50024204604F09FF920466C
:1026000010BD70B5EB4E90B015460446304604F050
:10261000DEF80028FAD1304603F0D4FF4FF0006016
:102620000090E54801A981E8310000204FF4806165
:102630000490CDE90501890007918900CDE90810D2
:102640004FF440300A9004200B9003200C90480275
:102650000D9080100E906946304604F03BF8202122
:10266000304604F084F80121304604F06CF810B0D4
:1026700070BD002102E04008491CC9B20128FAD10E
:10268000084670472DE9F84F17460A9E05004FF09F
:10269000FF346CD0C849002054390860DFF810A31B
:1026A0009AF80010022903D10E02570A47EAC357CD
:1026B00081460146BD484FF0FF323C384FF0010BD8
:1026C0008160C0E90021C160C0E9041B04F066F923
:1026D000B9486C380068800101D50E20E2E5701E13
:1026E000B0F5006F43D2064241D13046FFF7C1FF3B
:1026F000DFF8B8820090A8F1500840461021C0E9E8
:1027000000614021C8E902190901C8F8101004F05D
:102710001FF9102000F0E4FD0028DFD1009801012E
:1027200008F11400C0E901614FF0FF3140F80C1BC3
:10273000022180E8020A08F1140004F02FF9404653
:102740001121C0E900714021C8E902190901C8F846
:10275000101004F0FDF8112000F0C2FD0700BDD1FB
:102760009AF80100514620B101284CD074E026208F
:1027700098E5FDF798FD90498F4A4C398F4B40F210
:102780002A660DE0000409D50020146845F82040B1
:10279000401C0828F9D31C46203501E094B3641E80
:1027A000086830420868EDD0854C000704D52068E1
:1027B00040F00800206053E00868800705D52068D5
:1027C00040F00200206002206CE50868800605D514
:1027D000206840F020002060062063E5086880053E
:1027E00007D5206840F40070206007205AE5106883
:1027F00001C508688002FAD4FDF757FD40F2FF508A
:10280000206029E02CE0D04681F8039081F8029006
:1028100081F804906A49091D086840F22A32104381
:10282000086067480C38016841F008010160002227
:1028300031462846FFF7E5FE5E494046583900E03C
:10284000641E0A68120103D402790AB9C2782AB157
:1028500034B1C17801B1C778384623E5002CEFD1F7
:1028600004201FE52DE9FF5F82B05148DDE91087A4
:102870000299C160524900250C3916464FF0FF34C9
:102880000D600078022804D1560A4FF4007846EA19
:10289000C356DFF818A10121AAF13C0A5046CAF834
:1028A0000850CAF81410C0E90045CAF80C50A146F7
:1028B000CAF8105004F072F84148243800688001CA
:1028C00003D50E2006B0BDE8F09FA8F10100B0F5D9
:1028D000006F21D218EA000F1ED14046FFF7C9FE53
:1028E00000903248102150384FF4806BC0E90081CD
:1028F000402181600021C0E9031B04F029F8102069
:1029000000F0EEFC0500DDD13846012F34D900FB84
:1029100008F7B7F1007F01D32620D3E70098CAF863
:102920000090010150464FF00108CAF81480C0E938
:1029300001714FF0000902211C48CAE903194D46F4
:102940003C3804F02BF8DFF864A01221AAF1500AF9
:102950005046C0E900614021CAE90215CAF810B02A
:1029600003F0F6FF122000F0BBFC0500AAD1104EC8
:10297000707810B1012879D0A4E0FDF794FC104BD9
:102980000D4F1B1FDFF8348040F22A3C1CE000048E
:1029900018D5F06800213A6840F82120491C082920
:1029A000F9D320304446F0600EE00000D8A80020A3
:1029B0001C00002058640240802C0140FFFF0700EB
:1029C000382C0140F4B3641E186810EA0C0F186824
:1029D000DDD0FB4C000704D5206840F008002060E3
:1029E00066E01868800705D5206840F00200206086
:1029F000022067E71868800605D5206840F02000AF
:102A0000206006205EE71868800509D5206840F43C
:102A100000702060072055E73968F06802C0F06058
:102A200018688002F8D41868C00519D5307818B134
:102A3000012801D0022813D150460C22C0E900928F
:102A4000402201E034E011E0CAE90229DD48CAF879
:102A500010B003F07DFF0C2000F042FC0500C8D14F
:102A6000FDF723FC40F2FF5020602BE086F8039036
:102A700086F8028086F80490D14A121D106840F250
:102A80002A3108431060CE480C38016841F0080133
:102A90000160394600220298FFF7B3FDCA4800E002
:102AA000641E0168090102D4002CF9D100E00CB9C0
:102AB000042007E7307910B9F0780028FAD0F078D0
:102AC00000B1F5782846FDE67CB504460025BF48F0
:102AD0000095019500890204BA4802600D22426007
:102AE0004022C0E902251101016103F031FFB44920
:102AF000091F0868019002E00A680192104610F070
:102B0000450FF9D00198400702D50324042004E0C2
:102B10000198C00705D00124204603F0A7FF2046F6
:102B20007CBD03F02FFF01900D2838D140F2FF50FB
:102B300003F09CFF002003F02AFF0090C0F3432025
:102B40002070A349009808425DD00098002801DA5F
:102B50001C207CBD400001D509207CBD0098800070
:102B600001D50A207CBD0098C00001D50B207CBD9A
:102B70000098000101D50C207CBD0098400101D5D2
:102B80000D207CBD0098C00101D50E207CBD0098B1
:102B9000000201D50F207CBD0098400201D5102015
:102BA0007CBD0098800201D511207CBD0098C00238
:102BB00001D512207CBD0098000301D513207CBDF7
:102BC0000098400301D514207CBD0098800301D5F6
:102BD00015207CBD0098C00301D516207CBD00984F
:102BE000000401D517207CBD0098400401D51820B1
:102BF0007CBD0098800401D519207CBD0098000799
:102C000001D51A207CBD28467CBD2DE9FC5F4FF024
:102C100000050C9F90469A4604008DF800502E4601
:102C2000B9465CD066480C3805606648691E1430A9
:102C30008560C0E900150121C560C0E9045103F0B9
:102C4000ADFE5F4824380068800102D50E20BDE843
:102C5000FC9F5E480078022804D107024FEA582002
:102C600040EACA58781EB0F5006F38D2074236D114
:102C70003846FFF7FEFCDFF84CA1019050461021CA
:102C8000C0E900714FF0400BCAE902B58901CAF8EA
:102C9000101003F05DFE102000F022FB0028D6D1BA
:102CA0004A48008901045046CAF800100D21C0E9C5
:102CB000011B0021CAF80C104FF48061CAF81010F3
:102CC00003F046FE0D2000F00BFB0028BFD13C496D
:102CD000243908684FF0FF354FF0000A18E026202D
:102CE000B5E73A486D1E00890104364801600D21A0
:102CF000C0E9011B4FF48061C0E903A103F028FE85
:102D00000D2000F0EDFA0028A1D12D4824380068EC
:102D1000C00502D4002DE4D131E07DB3294818214B
:102D20005546C0F808B0C0E900814FF48061C0E9A1
:102D300003A103F00DFE182000F0D2FA002886D17E
:102D4000DFF888A04FF0FF3B29468AF8025001982F
:102D5000A84602011B485D461430C0F800B0C0E927
:102D600001720122C160C0E9041203F017FE9AF853
:102D7000010030B1564601286AD099E0FFE72920CA
:102D800065E7FDF790FA0E4A0D4B48321B1F40F2E3
:102D90001A672CE01868400427D5A9EB0600202804
:102DA00018D281074FEA900100D0491C002003E0AF
:102DB00020CC1560401C361D8842F9D313E000007A
:102DC000382C014088A80020006402401C0000202C
:102DD00008E0FFFD002054F820101160401C082876
:102DE000F9D320342036FC4D01E07DB36D1E186808
:102DF0003842CFD0082003F030FE18B1082003F08D
:102E000035FE53E0022003F028FE20B1022003F03B
:102E10002DFE02201BE7102003F01FFE20B1102022
:102E200003F024FE052012E74FF40074204603F05F
:102E300014FE20B1204603F019FE072007E7FDF736
:102E400034FA40F2FF5003F011FE31E02EE0FFE7CC
:102E500086F8038086F8028086F80480012140F21B
:102E60001A3003F0F0FD402239462046FFF7C9FB37
:102E7000012003F0E4FDD94800E06D1E016809015E
:102E800002D4002DF9D102E00DB1584603E0FFF75E
:102E90002AFB0BE0401E317909B9F17821B128B144
:102EA000F07828B1F078D2E60028F3D10420CEE6FD
:102EB00040F2FF5003F0DAFD6846FFF705FE0028F8
:102EC000A8D19DF800100729F6D00629F4D0BEE657
:102ED0002DE9FF5F82B04FF00001DDE910679146F8
:102EE00004008DF800100D4607FB06FA43D0BC48DD
:102EF0000160BC484A1E8160C0E900210122C16016
:102F0000C0E9041203F04AFDB54818380068800192
:102F100001D50E20D6E4DFF8D0B29BF800000228DD
:102F200005D1060205994FEA592040EAC159701EA1
:102F3000B0F5006F1FD206421DD13046FFF799FB56
:102F40000190A84810211438C0E900614021816037
:102F50000021C1604FF48061016103F0F9FC102091
:102F600000F0BEF90028D5D1012F5ED907FB06F885
:102F7000B8F1007F01D32620A4E49BF8000018B12B
:102F8000012801D0022828D1BBF80800954E010481
:102F9000143E30463160372171604021B16000211C
:102FA000F1604FF48061316103F0D2FC372000F012
:102FB00097F90028AED130461721C0E900714021B1
:102FC000B1600021F1604FF48061316103F0C0FC19
:102FD000172000F085F900289CD182481921143867
:102FE0000026C0E900914021C0E9021609010161F3
:102FF00003F0AEFC192000F073F900288AD1019883
:10300000771E01017748B1460760C0E901810121BF
:10301000C660C0E9046103F0C1FC5E469BF8010094
:1030200040F21A3B10B1012879D0A6E0FDF73BF938
:103030006B496B4A543108325B4624E01068400407
:103040001ED5AAEB050020280FD287074FEA90076C
:1030500000D07F1C002005E054F804CBC1F800C06C
:10306000401C2D1DB842F7D308E0002054F8207012
:103070000F60401C0828F9D320342035564F02E059
:10308000002F78D07F1E10681842D7D0082003F098
:10309000E4FC18B1082003F0E9FC6CE0022003F026
:1030A000DCFC20B1022003F0E1FC02200AE4102045
:1030B00003F0D3FC20B1102003F0D8FC05202CE451
:1030C0004FF40074204603F0C8FC20B1204603F002
:1030D000CDFC072021E44FF4807003F0BEFCB0B1BA
:1030E000307818B1012801D0022810D13D480C22B7
:1030F0001438C0E900924022C0E90229110101619F
:1031000003F026FC0C2000F0EBF80028D7D1FDF7E7
:10311000CCF840F2FF5003F0A9FC2EE0FFE786F860
:1031200003900121B17086F80490584603F08BFC9F
:10313000414640222046FFF764FA012003F07FFC5D
:1031400039463846254A00E0401E13681B0102D468
:103150000028F9D100E018B9FFF7C5F90BE0491EC6
:10316000307908B9F07820B129B1F07828B1F07839
:103170003FE40029F3D104203BE440F2FF5003F088
:1031800075FC6846FFF7A0FC0028F1D19DF80010FF
:103190000729F6D00629F4D02BE470B5124C002094
:1031A000A178012909D10E4924390860091D40F28E
:1031B0004C4008600C2000F093F8E0704FF48075EC
:1031C000284603F060FC0021284603F03CFC012067
:1031D0002071E07870BD0000FFFF0700006402402E
:1031E0002C2C01409CA800201C000020D5E72DE9D4
:1031F000FC4780465D480027914600783E460D46D4
:1032000008B1EE0D4D025FEA88714FF4007018D0DE
:103210000024824612E06002421946EBE073CDF8CA
:1032200000A05348FFF72EFA074652465049404641
:1032300010F0B3FF641C08F50078E4B24C45EAD303
:103240000AE0B9F1010F0AD0CDE900092A46334658
:103250004046FFF707FB07463846BDE8FC8700906D
:103260002A4633464046FFF70DFAF4E72DE9FC47BE
:103270000D463E490746002009789046064609B1AA
:10328000EE0D6D02BA074FF4007117D00024894685
:1032900011E04A463946364810F07FFF6002421975
:1032A00046EBE073CDF800903148FFF7AEFC641CAC
:1032B000E4B207F500774445EBD3CEE7B8F1010F50
:1032C00007D0CDE900182A4633463846FFF700FEFE
:1032D000C3E72A46334638460091FFF796FCBCE721
:1032E0002448016811F0450FFBD0224940F2FF50FD
:1032F000091D08601F482038006800F0080070476A
:1033000070B50C461B4906460025086810F0450FAD
:10331000FBD0410702D50324042003E0C00705D0F9
:103320000124204603F0A2FB204653E703F02AFBCA
:10333000B04212D140F2FF5003F098FB002003F09E
:1033400026FB10F4604F03D0810404D5132041E71D
:10335000000C208007E0410401D510203AE700046A
:1033600001D50F2036E7284634E700001C00002076
:1033700030A90020342C01407CB50121022002F04C
:10338000B0F901208DF8040000208DF8060003201C
:103390008DF8050002200B4D4FF480448DF8070096
:1033A00000946946284601F099FF2146284601F01D
:1033B000FAFF4FF4FA7003F065FD2146284601F04C
:1033C000F4FF7CBD000402401CB54FF6FF70FDF712
:1033D00094FCFB4C1F20FBA120801020CDE90001B4
:1033E000F9481023C82200880021183880B2FEF75F
:1033F0004DF84FF4784020801CBD08B5002A06D057
:103400000244521E009392B20B46FDF71AFE08BD0D
:103410002DE9FF5F80460E4640F2C32050434FF433
:103420007A71B0FBF1F702FB02F000EB520B14468D
:103430004FF6FF7000EA4202A8EB040080B231466A
:103440007F1C039BFFF7D9FF012538E005FB05F042
:1034500004FB040159451BD9BC4218D96800A0F1EE
:103460000209301981B2A8EB050000F1010A1FFA28
:1034700089F21FFA8AF0039BFFF7BFFF301B81B26E
:103480001FFA89F21FFA8AF0039BFFF7B6FF641E4A
:103490004FF6FF7000EA4402701981B2A8EB040AEB
:1034A00091461FFA8AF0039BFFF7A7FF701B81B2BA
:1034B0004A461FFA8AF0039BFFF79FFF6D1CBD422F
:1034C000C4D9BDE8FF9F884201D9401A00E0081A1C
:1034D00080B270472DE9FE4F00260C9C3546A04275
:1034E0004CD3A2424AD3A14248D3A34246D3A2EB33
:1034F000000882465F1A701E8946B8F1000F02DD8F
:103500004FF0010102E003D14FF00001019102E010
:10351000C8F100080190002F02DD4FF0010002E029
:1035200003D14FF00000009002E0C7F100070090C7
:103530004046B84501DD044600E03C46601C4FF0C3
:10354000000B029017E0DDE90C231FFA89F11FFA46
:103550008AF0FFF75DFF46443D44A64202DD019933
:10356000361B8A44A54202DD00992D1B89440BF1CC
:1035700001001FFA80FB02998B45E4DDBDE8FE8F58
:1035800088B0DFF84482DFF8449202AE4D46D9F8A5
:10359000040080470024A94609EB4405B8F8001050
:1035A0002A898A422AD26B8AB8F80200834225D23D
:1035B00036F82400A0F57F41FF3904D106EB8400E2
:1035C00026F8242043808249022006EB840731F844
:1035D0001410CDE90001798836F82400FFF77AFF4E
:1035E000288926F82400698A7980B8F80020183ADA
:1035F000904203DD142901D2FFF7E6FE641CE4B219
:10360000052CC9D3052003F03DFCBFE72DE9F041AF
:103610000E4607464FF0FF38FDF79FFF3420FEF7B8
:1036200035F8FDF7D1FF0546002408E0385DFEF7C8
:103630002DF8FDF7C9FF050003D1641CE4B2B442C4
:10364000F4DBFDF7A5FF05B145462846BDE8F0814E
:103650002DE9F0410D4607460221FFF7D7FF4FF055
:103660000008FDF77AFF3520FEF710F8FDF7ACFFF4
:1036700000246E1E09E0B44201D0012000E00020C9
:10368000FEF72CF83855641CE4B2AC42F3DBFDF7CE
:103690007FFF4046DAE72DE9F0474E4C00254FF01A
:1036A000D00A84F800A02F462E46657007212046D8
:1036B000FFF7CEFF2078AB2820D06079A04600F03D
:1036C0000F044FF00709012C1DD011D988F805A06F
:1036D00004EB840A474688F80690AAF1020108F133
:1036E0000500FFF7B5FF0AEB0700B0F8010047BA85
:1036F00000F037F9C44604EB840015E000F031F91E
:103700000020BDE8F087474688F805A088F80690B5
:103710000221781DFFF79CFFB7F80500E7E71CF8CA
:1037200005106D1C0E44EDB2A842F8D8274D4FF09D
:103730000608B7422ED16CB3002121E029B3042042
:1037400001EB8102131868181CF80320160902F017
:103750000F02067780F82120062A18D080F82180F1
:1037600003EB0C0042781301C278807843EA12130D
:1037700060F31F1205EB4100491C03814282C9B26C
:10378000A142DBD3DCB1002028E00020D8E780F89C
:103790002190E5E79CF8000001240009287785F8CE
:1037A00021809CF801009CF8022001019CF8030094
:1037B00041EA101162F31F1029816882E3E70FE0EC
:1037C0001400002052535400609800203000002064
:1037D000CE34020830AB0020401CC0B2A042FBD364
:1037E00020468EE710B5FDF788FEAFF2551064490C
:1037F0004860012010BDFFB5099E002E47D00A2E5B
:1038000000D90A2602248DF80040002427463CE017
:10381000155D8DF801501D5D8DF8025030F8145083
:103820008DF803502D0A8DF8045031F814508DF89E
:1038300005502D0A8DF80650E4B18DF80D70641C0A
:10384000E4B2B44219D2155D8DF807501D5D8DF8B4
:10385000085030F814508DF809502D0A8DF80A5090
:1038600031F814508DF80B502D0A641C8DF80C5053
:10387000E4B20AE08DF80D60E1E70725EC460CF8AC
:1038800005706D1CEDB20D2DF9D3B442C0D3FFBD50
:103890002DE9F147DFF8E8800024A8F104084FF093
:1038A0000A0A98F8000081B0401CC0B2B0FBFAF2DE
:1038B0000AFB1201324FA1462646254688F8000031
:1038C00009B10A2831D2012201A94FF45040FDF775
:1038D0006BFF9DF80400C1062BD000F01F0040F0E4
:1038E000C00087F826004FF0010997F8261009FA62
:1038F00004F001420AD023480422694630F814003B
:10390000FDF752FF07EB440006814582641CE4B2D8
:10391000052CEAD33A894FF0010900211AB9788AB7
:1039200008B98DF8041088F800109DF80400C0064E
:103930000ED197F82600010602D520F0800005E0A0
:103940004FF6FF713981798200F0E00087F8260098
:1039500098F80010F02901D988F800A04846BDE881
:10396000FC8708B5D0208DF8000000208DF80100FC
:10397000AB208DF8020003216846FFF747FE08BD23
:1039800030000020D834020810B5FA2003F07AFA8B
:1039900001F0A7F8882001F03AF901F0DBF82120C6
:1039A00001F035F901F0D6F8302001F030F901F0DE
:1039B000D1F801F0B2F8BDE81040962003F062BAE9
:1039C00010B5044601F08DF8882001F020F901F0CF
:1039D000C1F8E02001F01BF901F0BCF8002001F073
:1039E00016F901F0B7F801F07CF8892001F00FF921
:1039F00001F0B0F8012001F035F92080012001F03C
:103A000031F96080012001F02DF9A080012001F042
:103A100029F9E080012001F025F92081002001F042
:103A200021F96081BDE8104001F077B870B5054616
:103A3000FF20002331240FE0EA5C504008220606F4
:103A400002D584EA400000E04000521EC0B212F0ED
:103A5000FF02F4D15B1CDBB28B42EDD370BD10B51D
:103A60001446FFF7E3FFC0B2A04201D0012010BD11
:103A7000002010BD30B538482DED048B81B0FFF724
:103A80009FFF354C022120788DF80000A0788DF83A
:103A9000010022798DF802206846FFF7E0FF10F060
:103AA000FF0F04D0012001B0BDEC048B30BDBDF888
:103AB000000040BA1DF02BFF9FED281B53EC112B8B
:103AC0001DF038FF9FED278B53EC182B1DF098FD50
:103AD0009FED261B53EC112B1EF02AF89FED259B22
:103AE00053EC192B1DF026FF1DF0E2FE00EE100A2C
:103AF000224D0221B8EEC00A85ED000AA0798DF8AA
:103B00000000207A8DF80100A27A8DF80220684624
:103B1000FFF7A5FF10F0FF0F01D00220C3E7BDF8AB
:103B2000000040BA1DF0F3FE9FED151B53EC112B66
:103B30001DF000FF53EC182B1DF062FD53EC192B08
:103B40001DF0F8FE1DF0B4FE00EE100A0020B8EEE5
:103B5000C00A85ED010AA6E76EAB00200000000058
:103B600000E0654000000000E0FFEF4000000000C2
:103B70000080464000000000000024407800002043
:103B800000000000000059401CB50121082001F090
:103B9000A8FD4020009001208DF8040000208DF841
:103BA00006008DF8070003208DF805006946474898
:103BB00001F094FB1CBD454A012805D0002807D11F
:103BC0004021104601F0F1BB4021104601F0EBBB53
:103BD000704710B53E4C4021204602F0B4FC402115
:103BE000204602F0B7FC4021204602F0B3FC394ADF
:103BF00039A1204600F06AFABDE8104041F2883051
:103C000003F040B970B50024FFF7E3FF3348B0F884
:103C100000146FF30E01A0F80014B0F80024002186
:103C2000C2F30E022B4E81540546361F2A5D2146F3
:103C30002BA00FF055FF2819417805290BD1817869
:103C4000012908D10179C07801EB002081B271808F
:103C50002CA00FF045FF641CE4B2082CE6D370BD25
:103C60001CB52FA30022D3E90043CDE90043030A8A
:103C70008DF803308DF80400164B01201B1F1146F0
:103C800018706846445C491C2244C9B2D2B2052966
:103C9000F8D350428DF80500002058704FF47A7028
:103CA00003F0F0F80D4A0020115C162909D1111813
:103CB0004B78012B05D18B78032B02D1C978E629EB
:103CC00002D0401CC0B2EFE701201CBD000C024036
:103CD0000010014084000020257300007AAB002012
:103CE0000D0A20434F325F7374725F6275666665BA
:103CF000725B202564205D3D202025303258202035
:103D00000D0A00000D0A20434F325F4D6561737547
:103D100072655F646174613A2564200D0A000000D9
:103D200011030301905800001CB50121102001F07F
:103D3000D8FC3820009002208DF8050001208DF875
:103D4000040000208DF806006946C54801F0C6FA57
:103D50001CBD1CB5002210210223C14C01280BD030
:103D6000002808D18DF8053000918DF804206946AF
:103D7000204601F0B3FA1CBD8DF8053001208DF806
:103D8000040000918DF80620F1E706E06E21491E3F
:103D900011F0FF01FBD1401EC0B20028F6D17047E0
:103DA0002DE9F041AE4F0C4605462021384601F082
:103DB000FAFA0026E8074FF01001384602D001F069
:103DC000F2FA01E001F0F1FA6D080821384601F03D
:103DD000EAFA0220FFF7D9FF0821384601F0E5FA98
:103DE000761CF6B2082EE5D30025E0074FF010014F
:103DF000384602D001F0D7FA01E001F0D6FA6408A3
:103E00000821384601F0CFFA0220FFF7BEFF082153
:103E1000384601F0CAFA6D1CEDB2082DE5D33846DC
:103E2000BDE8F041202101F0C0BA2DE9F0418C4FEE
:103E300005462021384601F0B6FA0026E8074FF083
:103E40001001384602D001F0AEFA01E001F0ADFAFF
:103E50006D080821384601F0A6FA0220FFF795FF09
:103E60000821384601F0A1FA761CF6B2082EE5D3F7
:103E70000020FFF76EFF002564081021384601F08E
:103E80007EFA10B144F0800401E004F07F040821C0
:103E9000384601F088FA0220FFF777FF08213846FC
:103EA00001F083FA6D1CEDB2082DE5D320213846D0
:103EB00001F07BFA0120FFF74CFF200904F00F010D
:103EC00000EB800001EB4000C0B2BDE8F08170B5AE
:103ED000054600218E20FFF763FF68790A24B0FBB6
:103EE000F4F104FB1101B0FBF4F001EB0010C1B2DE
:103EF0008020FFF755FF2879B0FBF4F104FB110196
:103F0000B0FBF4F001EB0010C1B28220FFF748FFD4
:103F1000E878B0FBF4F104FB1101B0FBF4F001EB25
:103F20000010C1B28420FFF73BFFA878B0FBF4F18A
:103F300004FB1101B0FBF4F001EB0010C1B28620CC
:103F4000FFF72EFF6878B0FBF4F104FB1101B0FB22
:103F5000F4F001EB0010C1B28820FFF721FF2878B0
:103F6000B0FBF4F104FB1101B0FBF4F001EB001025
:103F7000C1B28C20FFF714FFBDE8704080218E2075
:103F80000EE710B58120FFF750FF044600218E2078
:103F9000FFF706FF44F08001BDE810408020FFE6F7
:103FA00010B58120FFF741FF044600218E20FFF766
:103FB000F7FE2146BDE810408020F1E670B50546C9
:103FC000FFF7B2FE0220FFF7E0FE254C202120463D
:103FD00001F0EBF90821204601F0E7F900218E20DD
:103FE000FFF7DEFE8120FFF720FF000603D52846FD
:103FF000BDE870406BE770BD10B58D20FFF715FF71
:10400000184C20708920FFF710FF60708720FFF7A1
:104010000CFFA0708520FFF708FFE0708320FFF7FA
:1040200004FF20718120FFF700FF607121780EA04E
:104030000FF056FD617810A00FF052FDA17812A08C
:104040000FF04EFDE17813A00FF04AFD217915A085
:104050000FF046FD6179BDE8104016A00FF040BD9D
:1040600000100240880000200D0A20796561723A34
:104070002564200D0A200000206D6F6E74683A25BB
:1040800064200D0A20000000206461793A25642034
:104090000D0A200020686F75723A2564200D0A20F1
:1040A00000000000206D696E7574653A2564200D6E
:1040B0000A200000207365636F6E643A2564200D4A
:1040C0000A0D0A200000000002F08CBF0FB42DE999
:1040D000FF4106460CAC00250FE05C2915D000F12D
:1040E000010025290B901ED0304602F09BF980215B
:1040F000304602F028FA0028F9D00B980178002900
:10410000EBD1BDE8FF015DF814FB401C0B9001787A
:104110006E2903D072291BD10D2100E00A213046FF
:1041200002F080F913E00178642914D073290FD1CB
:1041300080CC09E0304602F075F98021304602F06B
:1041400002FA0028F9D07F1C39780029F2D10B98A7
:10415000401C0B90CBE702CC0027684600291FD0FB
:1041600007DA4FF02D028DF80020C1F1000100F1B7
:10417000010042F210724FF00A0C91FBF2F353EA85
:10418000070E06D003F1300700F8017B03FB121184
:10419000012792FBFCF2002AEFDC05706F460FE06E
:1041A00030208DF800008DF80150F7E7304602F01E
:1041B00039F98021304602F0C6F90028F9D07F1C79
:1041C00039780029F2D1C2E72DE9FE43FC4C0E46B6
:1041D0009946218815466FF30E0121800246F9A108
:1041E000FA48FFF773FF56EA05002CD002AF4FF0F4
:1041F00008080022CDE900874B46114610460CF016
:104200007EFC0022CDE900874FF47A7311461046F8
:104210000CF075FC21880020C1F30E01A4F50052BA
:1042200050541146EAA00FF05BFC36B131462DB177
:10423000A4F500500FF024FF28B92946E5480FF0F7
:104240001FFF002800D00120BDE8FE833EB50024FA
:1042500002A90820CDE900014FF47A7322462146D5
:1042600020460CF04CFC4FF4FA752B460022DAA1E4
:10427000DAA0FFF7A9FF18B1DBA00FF031FC3EBDBB
:10428000641CE4B20A2CF0D33EBD40F6C41328B13E
:10429000012807D0022809D000207047D4A2CEA15F
:1042A000D6A006E0D2A2CCA1D7A002E0D0A2CAA19B
:1042B000D8A089E700B59FB00B460246D8A1684652
:1042C0000FF01AFC41F288330022C3A16846FFF7C1
:1042D0007BFF1FB000BD00B585B008B1012200E032
:1042E0000022D4A168460FF007FC4FF4FA730022B5
:1042F000B9A16846FFF768FF05B000BDF0B5B9B0D9
:104300000F4604461E461546642101A810F006F823
:1043100014B1012C0BD103E03B46CAA2009502E088
:104320003B46C9A20095C9A101A80FF0E5FB052EE7
:1043300006D201AB3246C9A11AA80FF0DDFB04E09A
:1043400001AACBA11AA80FF0D7FB4FF47A63CCA235
:10435000A1A11AA8FFF738FF39B0F0BD10B54FF48E
:10436000FA74234600229CA1C9A0FFF72DFF002864
:1043700006D02346BDE81040C9A297A1C9A023E7F3
:1043800010BD30B585B01C460D4638B10A4690A127
:104390008E48FFF79BFE012005B030BD052C06D2EC
:1043A000931C2246C2A168460FF0A6FB04E0C5A1FB
:1043B0006846921C0FF0A0FB4FF47A74234600224B
:1043C000C4A16846FFF700FF23460022C2A1284689
:1043D000FFF7FAFEE0E73EB5002202AD08244FF4F5
:1043E0007A7311461046CDE900450CF088FBBCA15C
:1043F0007648FFF76BFE00224FF4FA731146104621
:10440000CDE900450CF07BFB3EBD10B54FF4FA73CF
:10441000002271A1B3A0FFF7D7FEA0B1B5A16D48EE
:104420000FF02EFE08B1022010BDB5A169480FF0B3
:1044300027FE08B1032010BDB4A166480FF020FE8E
:1044400008B1042010BD002010BD2DE9FE438046B8
:1044500040F6B836304602F015FD5C4DA0A25CA1D6
:104460002846FFF733FE41F28837384602F00AFD4E
:10447000A9A00FF035FBFFF7E9FE304602F002FD80
:10448000304602F0FFFC4E4C20886FF30E00208077
:104490000020FFF7FAFE304602F0F4FC4FF4FA7306
:1044A00000224DA19EA0FFF78FFE4A499FA00FF06A
:1044B00017FB424643A12846FFF708FE384602F0A4
:1044C000E1FC444999A00FF00BFB384602F0DAFCFE
:1044D000384602F0D7FC20880021C0F30E023D4888
:1044E000944C8154A0606168084493A10FF0C8FD0A
:1044F0002060002829D08F49314D143142350A1FE0
:10450000CDE900250291A5F14003121F8CA10FF007
:1045100083FC6069A5F14002CDE90050D4E90313A2
:1045200090A00FF0DDFA9EA00FF0DAFA02E06068CA
:10453000401C6060216811F8010B21600A28F6D147
:10454000304602F09FFCA068CDE77DE62DE9904162
:104550001B4FC8B0002439886FF30E013980024622
:1045600072A11A48FFF7B2FD4FF47A78404602F084
:1045700089FC46A908200022CDE9000143461146E6
:1045800010460CF0BCFA39880020124FC1F30E011E
:104590007854394665A00FF0A3FA384688A10FF089
:1045A0006FFD45AA44A943A88DE807002B46324673
:1045B00087A107F10D000FF02FFC0DF10C082AE187
:1045C0007CCF002025730D0A00000000004400404D
:1045D000257300007CAF00204F4B000041542B524C
:1045E0004553544F524500004F4B0D0A0000000048
:1045F0006E6F206368616E676500000041542B4355
:10460000574D4F44453D310041542B43574D4F4486
:10461000453D320041542B43574D4F44453D3300F7
:1046200041542B43574A41503D222573222C2225C9
:104630007322000041542B4349504D55583D256489
:1046400000000000544350005544500022257322BE
:104650002C222573222C25730000000041542B438B
:10466000495053544152543D25642C257300000099
:1046700041542B43495053544152543D257300003B
:10468000414C5245415920434F4E4E454354000042
:1046900041542B4349504D4F44453D3100000000EB
:1046A0003E00000041542B43495053454E44000006
:1046B00041542B43495053454E443D25642C2564B9
:1046C0000000000041542B43495053454E443D25C2
:1046D000640000003E20000053454E44204F4B0034
:1046E0002B2B2B0041542B434950535441545553C9
:1046F000000000005354415455533A320D0A000053
:104700005354415455533A330D0A00005354415405
:1047100055533A340D0A00000D0A0D0A000000003E
:1047200041542B435753544154453F000D0A2573C0
:104730000D0A0000900000202B43574C4150000010
:104740002B43574C41503A2825642C22255B5E228E
:104750005D222C25642C22255B5E225D222C2564A3
:10476000000000002065636E203D2025640D0A20B6
:1047700073736964203D25730D0A20727373692079
:104780003D25640D0A206D6163203D25730D0A20CF
:104790006368616E6E656C203D2025640D0A000023
:1047A0003D3D3D3D3D3D3D3D3D3D3D3D3D3D3D3D39
:1047B0003D3D3D3D3D3D3D3D3D3D3D0D0A00000043
:1047C0002B434950534E545054494D453A00000034
:1047D0002822255B5E225D222022255B5E225D224F
:1047E00020256420256420256400000030788DF8A1
:1047F0000C0028788DF80D0043988DF80E00449831
:104800008DF80F0045988DF8100018F8041036A0A8
:104810000FF066F9641C3878411C39700A28E5D11C
:1048200048B0BDE8908100B59FB00B4600920246AB
:104830002FA101A80FF060F94FF4FA730022AFF234
:10484000682101A8FFF7C0FC43E500B59FB00B4607
:10485000024632A168460FF04FF94FF4FA73002276
:10486000AFF28C216846FFF7AFFC32E500B59FB090
:10487000024630A168460FF03FF94FF4FA73002268
:10488000AFF2AC216846FFF79FFC22E500B59FB070
:104890000B4602462CA168460FF02EF94FF47A73AE
:1048A000002230A16846FFF78FFC12E500B59FB0EB
:1048B0002DA168460FF020F94FF4FA73002229A1C8
:1048C0006846FFF781FC04E50EB5FFF7DFFF02A99C
:1048D00008200022CDE900014FF47A7311461046FA
:1048E0000CF00DF901200EBD0D0A25630D0A000024
:1048F00041542B4D515454555345524346473D3036
:104900002C312C222573222C222573222C22257354
:10491000222C302C302C22220000000041542B4D40
:10492000515454434F4E4E3D302C222573222C259A
:10493000642C300041542B4D5154545355423D305A
:104940002C222573222C310041542B4D51545450AC
:1049500055423D302C222573222C222573222C31E6
:104960002C3000004F4B000041542B4D5154544308
:104970004C45414E3D300000ADF5806D07460E467A
:1049800026A00FF0ADF82BA22BA12C48FFF79EFB21
:104990002B492CA00FF0A4F840F6B834204602F0C2
:1049A00071FAFFF753FC41F28835284602F06AFAA3
:1049B0000020FFF76AFC284602F064FA31463846C8
:1049C000FFF778FC284602F05DFA20A221A123A07F
:1049D000FFF729FF204602F055FA204602F052FA6E
:1049E00040F25B7120A0FFF730FF204602F04AFA48
:1049F000204602F047FA1FA0FFF738FF284602F0D2
:104A000041FA20A00FF06CF823A168460FF074F86B
:104A1000694618A0FFF758FFF6E70000D5FDD4DA85
:104A2000C5E4D6C3455350333253B2CECAFD0D0A46
:104A3000000000002B2B2B002573000000440040D9
:104A40007CAF00200D0A25730D0A00007075626CA2
:104A50006963000061646D696E00000061697468DB
:104A6000696E6B65720000003139322E3136382E96
:104A7000312E33004553503332532F6F6E6C696EB5
:104A8000650000000D0A204D515454C5E4D6C3CD35
:104A9000EAB3C9200000000053415F776966695F8F
:104AA00031383030000000001CB50121022000F038
:104AB00018FE4FF44070012400908DF8044000204F
:104AC0008DF8060003208DF805008DF80740694633
:104AD0007C4800F003FC7C48C0F8A042C0F8A44227
:104AE0001CBD70B57748016821F440210160016860
:104AF00041F480210160744C0120C4F8A402C4F880
:104B0000A002042004F5287402F09DF900256560D8
:104B1000042002F098F9256070BD6A4810B501685C
:104B200021F440210160016841F480210160664C5C
:104B30000020C4F8A002C4F8A402042004F52874DC
:104B400002F081F9012020606060BDE8104004207F
:104B500002F079B970B55B480024016821F4402166
:104B6000016001680160584D0126C5F8A462304615
:104B700002F069F9C5F8A062012002F064F907E0CB
:104B8000641CE4B2FA2C03D9FFF7C7FF012070BD03
:104B9000D5F824020028F3D1C5F8A00270BD70B585
:104BA000494C0025C4F8A0524648016821F4402130
:104BB0000160016841F480210160C4F8A452022020
:104BC00004F5287402F03FF901202060022002F071
:104BD0003AF9256070BD70B53B4C0026C4F8A06260
:104BE0003848016821F440210160016841F48021C6
:104BF00001600125C4F8A452022004F5287402F0D3
:104C000022F92560022002F01EF9266070BD2DE910
:104C1000F04105462B48016821F4402101600168FC
:104C200041F480210160284E0027C6F8A0723C465E
:104C30004FF00108E809C6F8A4026806050E022034
:104C400002F001F9C6F8A082022002F0FCF8C6F8D2
:104C5000A072022002F0F7F8641CE4B2082CE9D339
:104C6000BDE8F0812DE9F04781461648002401682F
:104C700021F44021016001680160134E254627465A
:104C80004FF00108C6F8A072022002F0DCF8C6F866
:104C9000A0826006040ED6F8240208B1641CE4B2B7
:104CA000012002F0D0F86D1CEDB2082DEAD3B9F165
:104CB000000F04D0FFF773FF2046BDE8F087FFF731
:104CC0008AFFF9E70004024000804042094880471B
:104CD00009480047FEE7FEE7FEE7FEE7FEE7FEE7DE
:104CE000FEE7FEE7FEE7FEE704480549054A064BF6
:104CF00070470000BB0700088901000810C50120AB
:104D000010CB012010C7012010C7012028490843FB
:104D100028490860704730B50F23C2780178012513
:104D2000FAB1244A126801F1E02102F4E062C2F50E
:104D3000E062C2F30722C2F10404D3404278A240E9
:104D400084781C401443220181F80024007800F08C
:104D50001F018D404009800000F1E020C0F80051A3
:104D600030BD01F01F0085404809800000F1E020BF
:104D7000C0F8805130BD104A114001430D48001F5A
:104D8000016070470B4A121D0029116801D00143D0
:104D900000E08143116070474FF0E021042808696A
:104DA00003D020F004000861704740F00400FAE7E7
:104DB0000000FA050CED00E080FFFF1F8100A1F16B
:104DC000C04140B143F2D20008606FF070404860CB
:104DD000C1F8040170474FF0204243F2DB0010603D
:104DE000F3E710B5D0E901121143D0E903231A43C8
:104DF00011434269114382691143C2691143026A36
:104E00001143426A1143826A1143C26A1143026B21
:104E1000114302689200A2F1C04211608168082922
:104E200007D101688900A1F1C0410A6842F040023F
:104E30000A60416BD1E9002342EA03128B688C8936
:104E40001B0243EA04431A430B8A42EA03520B7DD6
:104E5000896942EA03620A4301688900A1F1C041FD
:104E60004A60C16AB1F5804F08D000686FF07041A8
:104E70008000A0F1C040C0F8041110BD816BD1E9E1
:104E8000002342EA03128B680C8A1B0243EA045394
:104E90001A430B7D896942EA036200680A43800075
:104EA000A0F1C040C0F8042110BD00210222C0E9D9
:104EB00000128160C160016141618161D202C16102
:104EC000C0E908125200C0E90A210163CB494163DD
:104ED000816370478000A0F1C0400029016802D0C2
:104EE00041F0010101E0C64A11400160704710B570
:104EF000182340244FF020414FF0FC32102805D0F9
:104F000041F8803F4C608A60CA6010BD0B664C66F9
:104F10008A66CA6610BD30B5D0E901121143D0E9E6
:104F200003231A431143426941EA4221826941EA5B
:104F3000423141F00804C169D1E9002342EA032269
:104F40000B89097B1B0443EA01610A43016AD1E929
:104F5000003543EA05230D89097B2D0445EA0161EB
:104F60000B4301684FF02040102904D040F8804FD7
:104F70008260C36030BD04668266C36630BD1021A6
:104F80000160002141608160C16001614161816116
:104F9000C269FC211160C2695160C2699160C26935
:104FA000D160026A1160026A5160026A9160006A0F
:104FB000C16070474FF0204251B1102804D052F820
:104FC000800F40F004000AE0106E40F004000AE098
:104FD0008B49C91E102804D052F8800F0840106079
:104FE0007047106E0840106670474FF0204251B174
:104FF000102804D052F8800F40F040000AE0106EF4
:1050000040F040000AE07E493F39102804D052F8B1
:10501000800F084010607047106E0840106670479F
:105020004FF02041102802D0D1F894007047486F0B
:1050300070474FF02040182140F8A01F0021416028
:105040004FF0FC318160C1600161704710B5D0E95B
:10505000001241EA42218268102343EA423211439E
:105060004FF0204242F8A01FC168D1E9003443EA62
:1050700004230C89097B240444EA01610B439360F7
:105080000169D1E9003443EA04230C89097B240433
:1050900044EA01610B43D3604069D0E9001341EA5F
:1050A00003210389007B1B0443EA00600143116173
:1050B00010BD0021016041608160C268FC21116067
:1050C000C2685160C2689160C268D16002691160B3
:1050D00002695160026991600269D16042691160A0
:1050E00042695160426991604069C16070474FF008
:1050F0002041002851F8A00F02D040F0040002E047
:105100003F4AD21E10400860704710B54FF48074BB
:105110004FF0204372B1102804D0A04205D153F8BB
:10512000840F04E0586E08430DE053F8A40F0843C1
:10513000186010BD102804D0A04206D153F8840F87
:1051400005E0586E8843586610BD53F8A40F884395
:10515000EEE7034600204FF02042102B08D0B3F5B5
:10516000807F07D0D2F8A4200A4200D001207047E7
:10517000526EF9E7D2F88420F6E74FF0204210286B
:1051800007D0B0F5807F08D052F8A40F8843106094
:105190007047506E88435066704752F8840FF5E7A9
:1051A000034600204FF02042102B0CD0B3F5807F37
:1051B0000BD0D2F8A4200A4202EAD10102D0002981
:1051C00000D001207047526EF5E7D2F88420F2E754
:1051D0004FF02042102808D0B0F5807F0AD052F856
:1051E000A40F20EAD10010607047506E20EAD10071
:1051F0005066704752F8840FF3E70000E434020869
:10520000FEFF0F00774910B5884206D101210846FC
:1052100000F099FA002101205BE07349884206D131
:105220000121022000F08FFA0021022051E06F4995
:10523000884206D10121042000F085FA00210420D3
:1052400047E06B49884206D10121082000F07BFA33
:10525000002108203DE06749884206D10121102045
:1052600000F071FA0021102033E06349884206D132
:105270000121202000F067FA0021202029E05F4969
:10528000884206D10121402000F05DFA0021402033
:105290001FE05B49884206D10121802000F053FACB
:1052A0000021802015E05749884202D10121841550
:1052B0000AE05549884202D10121441504E05349CE
:1052C00088420AD101210415204600F03CFA002151
:1052D0002046BDE8104000F036BA10BDF0B50022FF
:1052E00001274FF0030C0B6807FA02F52B40AB4285
:1052F0002CD1066853000CFA03F4A64306600E791D
:10530000D0F800E09E4046EA0E0606600E79012EB7
:1053100001D0022E12D18668A64386604E79D0F85D
:1053200008E09E4046EA0E0686604668AE43466048
:1053300045688E799640B6B235434560C568A54349
:10534000C560CC799C40C3681C43C460521C102AC1
:10535000C9D3F0BD4FF6FF710160002101714171A9
:105360008171C171704708B541F480320092C26109
:10537000C1610099C161C169C069009008BD024660
:10538000002012690A4200D001207047006980B2F3
:1053900070470246002052690A4200D0012070473F
:1053A000406980B2704701837047418370470AB1FA
:1053B00001837047418370474161704742694A40A9
:1053C000426170474B07DB0E9A40C90810B500EBED
:1053D0008100016A0F249C40A1430162016A1143CC
:1053E000016210BD000002400004024000080240BB
:1053F000000C02400010024000140240001802405D
:10540000001C02400020024000240240002802400C
:10541000F848016841F001010160F64A00210832B4
:1054200011600268F44B1A400260031DF34A1A60CF
:10543000F04BF34A84331A60F04A103A1B1D1A608D
:10544000026822F480220260EA480C300160181DD4
:1054500001607047E7490022891C0A700870704794
:1054600002460020510901290CD002290CD0E14943
:105470007431096802F01F02012393400B4200D0EF
:1054800001207047DB49F4E7DA497031F1E718B5DC
:1054900000204FF4A04400903120FFF7E1FF009975
:1054A000491C0091A14201D00028F5D03120FFF71E
:1054B000D7FF002800D0012018BDCE4A116821F086
:1054C000F80141EAC00010607047CE49086070479B
:1054D000C849002270310A700A70012802D00428DD
:1054E00001D1052008707047C7490860704741EA3C
:1054F00082115A0810B5C54B029C03EB02421143BE
:10550000014341EA0460BB49091D086010BDBD4963
:1055100008667047800140EA0170B649843108602E
:105520007047B84988667047800140EA0160B14918
:1055300040EA0270883108607047B24908677047D6
:10554000B049C8647047AB4B08331A68084322F06F
:10555000EC62104318607047A64B08331A68084382
:1055600022F07842104318607047A24A083211684E
:1055700021F003010143116070479E480830006824
:1055800000F00C0070479B4A0832116821F0F001CE
:10559000014311607047974A0832116821F4E051C5
:1055A000014311607047934A0832116821F4604149
:1055B00041EAC0001060704770B58E4B083319681F
:1055C000934C11F00C0104D06610042903D0082973
:1055D00003D004601BE0066019E0864A121D1168C2
:1055E000C1F38055116801F03F0115B1B6FBF1F12F
:1055F00001E0B4FBF1F114681268C4F3881461434C
:10560000C2F30142521C5200B1FBF2F10160196871
:105610000F2202EA11117F4A545C0168E1404160A7
:105620001C68072505EA9424145D21FA04F48460BB
:105630001B6805EA5333D25CD140C16070BDC0F332
:105640000121032908D16B4B08331968724A21F4F0
:10565000F81102400A431A60664970310A68C0F3C3
:105660000B0002430A60704767494439086070477D
:1056700065494039086070476249C1F85C0170476C
:105680005C4A8C321168401E21F01F0101431160F9
:105690007047584A8C3211686FF0FF0321F4F851BB
:1056A00003EB0020084310607047524A8C321168A7
:1056B00021F440110143116070474E4A8C32116849
:1056C00021F440010143116070474A4A8C3211684D
:1056D00021F440310143116070475049C1F8E001A5
:1056E0007047444A30320029116801D0014300E07C
:1056F0008143116070473F4A34320029116801D05C
:10570000014300E08143116070473A4A3832002972
:10571000116801D0014300E0814311607047354AB0
:1057200040320029116801D0014300E0814311603B
:105730007047304A44320029116801D0014300E02B
:105740008143116070472B4A10320029116801D043
:10575000014300E0814311607047264A143200295A
:10576000116801D0014300E0814311607047214A74
:1057700018320029116801D0014300E08143116013
:1057800070471C4A20320029116801D0014300E013
:10579000814311607047174A24320029116801D0F3
:1057A000014300E0814311607047124A50320029E2
:1057B000116801D0014300E08143116070470D4A38
:1057C00054320029116801D0014300E08143116087
:1057D0007047084A58320029116801D0014300E09F
:1057E000814311607047034A60320029116817D065
:1057F000014316E000380240FFFFF6EA10300024B3
:105800000030002000004742800E47420000FFFFAA
:105810000024F400A9000020FFFCFF0F0010474205
:10582000814311607047194A0029116801D0014372
:1058300000E081431160704714490C310128086869
:1058400003D020F008000860704740F00800FAE735
:105850000E4A573A0029117801D0014300E08143F4
:105860001170704709481030016841F08071016083
:1058700070470146054A0020583A12680A4200D093
:10588000012070470149563908707047643802405A
:10589000FE4910B5884206D101210846FFF77BFF7B
:1058A000002101205BE0B0F1804F09D0F849884227
:1058B0000DD101210220FFF764FF0021022070E0DA
:1058C00001210846FFF75DFF0021012069E0F14951
:1058D000884206D101210420FFF753FF0021042054
:1058E0005FE0ED49884206D101210820FFF749FF1A
:1058F0000021082055E0E949884206D10121102005
:10590000FFF73FFF002110204BE0E549884206D118
:1059100001212020FFF735FF0021202041E0E1494F
:10592000884206D101210220FFF735FF0021022025
:1059300015E0DD49884202D101210C040AE0DB496F
:10594000884202D101214C0404E0D94988420AD19D
:1059500001218C042046FFF71EFF00212046BDE8F0
:105960001040FFF718BFD349884206D101214020DB
:10597000FFF707FF0021402013E0CF49884206D1FE
:1059800001218020FFF7FDFE0021802009E0CB49A6
:1059900088420AD1841501212046FFF7F2FE00213A
:1059A0002046BDE81040FFF7ECBE10BD30B50288C0
:1059B000B64CBC4DA0420DD0A8420BD0B0F1804FE8
:1059C00008D0B34B984205D0B24B984202D0B24BAC
:1059D000984203D122F070034A881A43AF4B984291
:1059E00006D0AF4B984203D022F440730A891A4381
:1059F00002804A68C2620A880285A04201D0A84299
:105A000001D1897A01860121818230BD4FF0FF31B9
:105A100041600021018001814180817270470185D0
:105A200082827047028822F070020A430280704727
:105A300041627047C1627047406A7047008D70478D
:105A40000029018802D041F0020101E021F00201A9
:105A5000018070470029018802D041F0040101E073
:105A600021F00401018070470029018802D041F033
:105A7000800101E021F0800101807047028822F05E
:105A80000802028002880A4302807047028822F4DA
:105A90004072028002880A43028070470029018810
:105AA00002D041F0010101E021F0010101807047C5
:105AB00030B5028C22F001020284028C8388048BB0
:105AC00022F0020224F073050C882C438D891543C3
:105AD0004A882A436D4DA84202D0724DA8420DD18A
