:020000040800F2
:10000000A8C20120354B0008F5060008F7060008D5
:10001000F9060008FB060008FD06000800000000C5
:10002000000000000000000000000000FF060008C3
:100030000107000800000000173801087D6C000867
:100040004F4B00084F4B00084F4B00084F4B000828
:100050004F4B00084F4B00084F4B00084F4B000818
:100060004F4B00084F4B00084F4B00084F4B000808
:100070004F4B00084F4B00084F4B00084F4B0008F8
:100080004F4B00084F4B00084F4B00084F4B0008E8
:100090004F4B00084F4B00084F4B00084F4B0008D8
:1000A0004F4B00084F4B00084F4B00084F4B0008C8
:1000B0004F4B00084F4B0008BB1D01084F4B000879
:1000C0004F4B00084F4B00084F4B00084F4B0008A8
:1000D0004F4B0008013C0008296F00084F4B0008F7
:1000E0004F4B00084F4B00084F4B00084F4B000888
:1000F0004F4B00084F4B00084F4B00084F4B000878
:100100004F4B0008A93100084F4B00084F4B000827
:100110004F4B00084F4B00084F4B00084F4B000857
:100120004F4B00084F4B00084F4B00084F4B000847
:100130004F4B00084F4B00084F4B00084F4B000837
:100140004F4B00084F4B00084F4B00084F4B000827
:100150004F4B00084F4B00084F4B00081B6E000828
:100160004F4B00084F4B00084F4B00084F4B000807
:100170004F4B00084F4B00084F4B00084F4B0008F7
:100180004F4B00084F4B000800F002F800F076F8E3
:100190000AA090E8000C82448344AAF10107DA45E2
:1001A00001D100F06BF8AFF2090EBAE80F0013F0BE
:1001B000010F18BFFB1A43F001031847608E0200BD
:1001C000808E02000A444FF0000C10F8013B13F03F
:1001D000070408BF10F8014B1D1108BF10F8015BA0
:1001E000641E05D010F8016B641E01F8016BF9D193
:1001F00013F0080F1EBF10F8014BAD1C0C1B09D1EA
:100200006D1E58BF01F801CBFAD505E014F8016B5B
:1002100001F8016B6D1EF9D59142D6D370470000ED
:100220000023002400250026103A28BF78C1FBD8FF
:10023000520728BF30C148BF0B607047642912F0D5
:100240006B83752912F06883782912F0A1836329E2
:1002500012F0FD87732913F00280002070471FB54C
:100260001EF0F0FC13F0B8FA0400002000211EF08C
:100270007BF8401C60601FBD10B510BD13F070FA14
:100280001146FFF7ECFF00F064F913F097FA03B49E
:10029000FFF7F2FF03BC06F065FD000030BF72B649
:1002A000704762B6704780F3088870470EB54FF408
:1002B000FA64A71002AD082641F28838204606F0FD
:1002C0002BFD3946DFA004F08FF8204606F024FD10
:1002D000CDE90065002143460A22084610F0DBFA0A
:1002E000ECE70EB502AE08244FF47A750022CDE992
:1002F00000462B461146104610F0CDFAF6E70EB533
:100300004FF47A7602AC082540F2DC57304606F00E
:1003100003FD0022CDE900543B461146104610F083
:10032000BAFAF3E70EB502AE082440F2DC5500221B
:10033000CDE900462B461146104610F0ACFAF6E720
:100340000EB5C34C02AD082640F2DC57D4F890023B
:1003500088B10020C4F89002D4F8980268B1002057
:10036000C4F898020022CDE900653B4611461046CC
:1003700010F091FAEAE70120ECE70120F0E70EB572
:1003800002AD082415F0FEFB00220523114610469D
:10039000CDE9004510F07FFAF4E70EB502AE08246F
:1003A00040F2DC5511F0E3F90022CDE900462B467E
:1003B0001146104610F06FFAF4E72DE9F0478AB0C5
:1003C0000BF083F809A80EF01AFF012109AA0846CC
:1003D0000CF0C0FA0121080305F0CDF8042018F054
:1003E00019FD14F071FC0BF045F9DFF868A29AF8DA
:1003F0000010491C8AF800100BF040F90024032675
:10040000CC21CDE9064609AD05940427924A08950A
:100410000097CDE901214FF400602346AFF2850239
:10042000CDE903048C488DA1C4380FF083F94FF057
:100430006609CDF80890CDE906468C4A0594CDE9C9
:1004400000724FF4806808950023AFF2CD02874810
:10045000CDE9038486A1C4380FF06CF9CDE90646D6
:1004600019210594854A08950097CDE90121B80125
:100470000023AFF23312CDE90304804880A1C438D1
:100480000FF058F9CDF80890CDE906467F4A05945B
:10049000CDE9007208950023AFF277127B48CDE9D1
:1004A00003847BA1C4380FF045F9CDF80890CDE95D
:1004B00006467A4A0594CDE9007208950023AFF20A
:1004C000C1127648CDE9038475A1C4380FF032F922
:1004D000CDF80890CDE90646744A0594CDE900723E
:1004E00008950023AFF205227048CDE9038470A17E
:1004F000C4380FF01FF9CDF80890CDE906466F4AD1
:100500000594CDE9007208950023AFF25F226B4895
:10051000CDE903846AA1C4380FF00CF909A96B482E
:100520000FF005FF0BF0A6F89AF80010491E11F025
:10053000FF018AF8001009D16549098831B10BF033
:100540009DF80CF07DFD0AB0BDE8F0870BF096F841
:10055000F9E760A18CB0D1E90001CDE90901A8203B
:1005600006F09AFB4FF4A06004F004FB4FF4E13472
:10057000204606F001FC204606F07EFC4FF41650A3
:1005800003F0F3FA00F0EBFB00F07AF902F0D2FE90
:10059000002006F036FD022006F033FD06F008FECE
:1005A0004E4801224EA1006808F031FD03F0F4F836
:1005B0004C480068804704F0ABF903F0BFF909A884
:1005C00003F0CAFC09A803F050FC204603F04AFDE2
:1005D0000BA80CF055F80BF04DF81E4C2178491C77
:1005E00021700BF04BF8002006AB0BAA03210590FD
:1005F00083E8070066234FF48062CDE90232334D71
:100600000490C4350346AFF24D22CDE9001536A162
:100610002E480FF08FF80BF02DF82178491E11F0BD
:10062000FF01217007D12A49098821B10BF026F872
:100630000CF006FD01E00BF021F80BA80CF047FAD6
:10064000FEE7000041542B43574C4150000000008E
:10065000008040429C010020242F0020456D7769D6
:100660006E7569207461736B000000009C19002096
:10067000546F756368207461736B0000602A0020FA
:100680004C656430207461736B000000E84F0020FB
:100690005348543330207461736B00007071002034
:1006A00050525443207461736B000000AC60002012
:1006B000434F32207461736B0000000034820020CD
:1006C00057494649207461736B00000014080020EC
:1006D000600100201606140E0E060000D09C0120BA
:1006E000303A00003000002073746172742074612D
:1006F000736B00007047FEE7FEE7FEE7FEE770471A
:10070000704700000CB500205449019000900A6821
:1007100042F480320A604FF4A0430A6802F40032C7
:100720000092019A521C0192009A12B9019A9A42BF
:10073000F3D10A68920334D5012000904748403035
:10074000026842F0805202604548026842F440422A
:1007500002604248083002680260026842F40042C7
:100760000260026842F4A0520260031F3D4A1A6010
:100770000A6842F080720A600A689201FCD53A4A1F
:1007800040F205711160016821F003010160016808
:1007900041F0020101600168C1F381010229FAD12F
:1007A0000CBD00900CBD314810B5016841F47001DA
:1007B00001602A48016841F001010160274A0021D7
:1007C0000832116002682A4B1A400260031D294A50
:1007D0001A60026822F48022026020480C30016016
:1007E000FFF790FF21494FF000608039086010BD8D
:1007F00070B51A4C083420681F4A10F00C011F48CD
:1008000004D05510042903D0082903D002601BE04E
:10081000056019E01149091D0B68C3F380560B6888
:1008200003F03F0316B1B5FBF3F201E0B2FBF3F2C4
:100830000B680968C3F388135A43C1F30141491C8B
:100840004900B2FBF1F1016021680C4AC1F30311C8
:10085000121D515C0268CA40026070BD003802403F
:100860000070004008544007003C024088ED00E062
:10087000FFFFF6FE103000240024F40000000020EA
:100880001CB50121022004F076FEF8200090012022
:100890008DF8040000208DF806008DF80700032075
:1008A000054C8DF805006946204604F04BFCF82104
:1008B000204604F0C1FC1CBD00040240FE49088033
:1008C00070474FF0C2410880704708B54FF0C240F2
:1008D0000088ADF80000BDF8000008BDF64A1080A1
:1008E000901C01807047F44910B508800F2006F075
:1008F000F4F9BDE81040E8E7F048EF4900890880C6
:1009000070474FF0C24108807047C0F34511C20ADA
:10091000C00200EB4110104480B27047401EC0B2CC
:10092000FCD27047F0B5E54AE34E0B0A978855892B
:100930009489020AA7F5144C4FF0C24EBCF1860C04
:100940001CD0A7F5EC4CBCF5CB7C17D0A7F5134C0D
:10095000BCF1410C04D0A7F5A04CBCF5447C0CD1F3
:100960003580AEF80020C0B2AEF80000A6F8004016
:10097000AEF80030C8B2AEF80000F0BD3580AEF879
:100980000020C5B2AEF80050AEF80020C0B2AEF8FC
:1009900000003480AEF80030C8B2AEF80000E7E7DF
:1009A00010B5C64C2288824212D962888A420FD979
:1009B000FFF7B8FFA088C049A0F51342413A09D01B
:1009C000A0F51442863A23D0A0F5EE42963A1FD005
:1009D000002010BD2E200880FFF777FF0120401E69
:1009E000C0B2FCD2FFF771FF01460120401EC0B229
:1009F000FCD2FFF76AFFCAB24FF6FF7303EA022286
:100A00006FF30A01920A41EA421141EAD02010BD77
:100A10002E200880FFF759FF0120401EC0B2FCD2F3
:100A2000FFF753FF0121491EC9B2FCD210BDA348F4
:100A30008088A0F51441863907D0A0F5EE4196399B
:100A400003D0A0F51341413902D19B4929200880E8
:100A500070479A488088A0F51441863907D0A0F5E0
:100A6000EE41963903D0A0F51341413902D19249A4
:100A7000282008807047914B10B59A790021012AEF
:100A800016D1082814D2DFE800F00406080A0C0E7C
:100A9000101206200CE007200AE0042008E00520E0
:100AA00006E0012004E0002002E0032000E0022034
:100AB0009A88A2F51444863C07D0A2F5EE44963CF1
:100AC00003D0A2F51344413C37D1082812D2DFE805
:100AD00000F0110406080A0C0E1080210AE04021E3
:100AE00008E0C02106E0202104E0602102E0A0210E
:100AF00000E0E0213620A2F5D04441F00801043C9A
:100B000001D141F00201FFF7E9FE6B4A58891080DC
:100B10000021901C018001801988491E0C0A048064
:100B2000C9B2018099891180002101800180598812
:100B3000491E0A0A0280C9B2018010BD00B5FFF744
:100B4000F1FEFFF7D9FE5E484FF0C24100880880F1
:100B500000BD2DE9F047DFF8649192464A46B9F8A6
:100B600004C0554F56899589BA1C0C0A030AACF586
:100B70001448B8F1860804D0ACF5EC48B8F5CB7849
:100B800015D13E80138000F0FF08A2F8008013808A
:100B900000F0FF08A2F800803D80148001F0FF08FB
:100BA000A2F80080148001F0FF08A2F80080ACF5E4
:100BB0001348B8F1410804D0ACF5A048B8F5447822
:100BC00007D13E801380C0B210803D801480C8B22F
:100BD0001080B9F808003880A2F800A0BDE8F087BE
:100BE0002DE9F007354A49F241362C2791884FF01C
:100BF0002A0C4FF02B094FF4F07A4FF0F0084FF425
:100C0000A07349F2864447F29675D0B101209071E5
:100C10001380A2F80280A14203D0A94201D0B142C0
:100C200004D11781A2F80AC0A2F80C90A14201D009
:100C3000A94202D1A2F800A05380BDE8F00701202C
:100C400019E700209071A2F800805380A14203D0E0
:100C5000A94201D0B142F0D11781A2F80AC0A2F88E
:100C60000C90A14201D0A942E7D11380A2F802A0C2
:100C7000E3E7F0B50244521E94B2CA180F4B521E5D
:100C800095B29A88A2F51446863E07D0A2F5EE46A4
:100C9000963E03D0A2F51346413E1CD1064E5A891A
:100CA0003280070AB21C1780C0B21080200A108060
:100CB000E0B21080988905E0FEFFFF6034920020CA
:100CC000140000203080080A1080C8B21080280A62
:100CD0001080E8B21080F0BD2DE9F041F94D80465A
:100CE000002629886F88F8A04F4311F0A5FD698878
:100CF000F8A011F0A1FD3946FAA011F09DFDA888D9
:100D00004FF0C244A0F5144186390AD0A0F5EE4157
:100D1000963906D000210846FFF704FEFFF7ECFDE8
:100D200019E0F54968890880002020802080288803
:100D3000020A2280C0B22080A8890880002020807A
:100D400020806988080A2080C8B22080E6E700BFBA
:100D5000A4F80080761CBE42FAD3BDE8F0812DE9EC
:100D6000F043A1B00024012118201F9404F003FCDB
:100D70000121084604F013FC01268DF84060402054
:100D80008DF842400225DFF874930F908DF84150A2
:100D90008DF843600FA9484604F0D4F98DF840500F
:100DA0004CF2B3708DF842400327DFF854830F9064
:100DB0008DF841708DF843600FA9404604F0C2F9E8
:100DC0008DF840504FF684708DF842400F908DF8AA
:100DD00041708DF843600FA9484604F0B3F90C2226
:100DE0000821404604F037FA0C220921404604F05D
:100DF00032FA0C220A21404604F02DFA0C220E2170
:100E0000404604F028FA0C220F21404604F023FA51
:100E10000C220021404604F01EFA0C22012140461B
:100E200004F019FA0C220421404604F014FA0C22B2
:100E30000521404604F00FFA0C220721404604F039
:100E40000AFA0C220221484604F005FA0C22072176
:100E5000484604F000FA0C220821484604F0FBF949
:100E60000C220921484604F0F6F90C220A214846D2
:100E700004F0F1F90C220B21484604F0ECF90C22A5
:100E80001146484604F0E7F90C220D21484604F0CB
:100E9000E2F90C220E21484604F0DDF90C220F2164
:100EA000484604F0D8F90A20CDE91150CDE9135491
:100EB000CDE9185015941694CDE91A5417941C9442
:100EC0001020CDE902401D9404940002CDE90840B1
:100ED0001E9400940194069405948000CDE90A4084
:100EE000079411A8CDE90C4018A80E90684603F0AD
:100EF000ADFE0121002003F022FF724947F29670F7
:100F00004FF4FA758880284605F006FF7A4C1121C7
:100F10002180284605F000FFF0202080C321A01C7E
:100F20000180F0212180962121803621218000211D
:100F300001803A21218005210180E8212180402182
:100F40000180822101800721018018210180272151
:100F500001800A210180B621018033210180C52151
:100F6000218027210180C2212180A7210180E02149
:100F70002180F021018001210180062101800F21C3
:100F80000180122101801D21018036210180542120
:100F90000180442101800C2101801821018016214B
:100FA00001801321018015210180E1212180F021A0
:100FB000018001210180052101800A2101800B218E
:100FC00001800721018032210180442101800180BC
:100FD0000C2101801821018017210180132101803B
:100FE00016210180F02121803C210180F021218007
:100FF00069210180680005F08FFE292020800020F3
:10100000FFF7EEFD4FF4FC60FFF766FE21B0BDE890
:10101000F0832DE9F04380462A481746DDF81C90FE
:1010200080881E46A0F51442863A0BD0A0F5EE4209
:10103000963A07D0A7EB0800401C85B20C464FF04B
:10104000C24721E00C460CE0454606E04A462146F0
:101050002846FFF77EFD6D1CADB2BD42F6D3641C81
:10106000A4B2B442F0D3D2E721464046FFF75AFC7F
:10107000FFF742FC002003E0A7F80090401C80B27C
:10108000A842F9D3641CA4B2B442EDD9BFE72DE95C
:10109000F0478246A2EB0A00401C0E4685B2981B20
:1010A000401C87B200244FF0C249DDF8208034E0B4
:1010B000301981B25046FFF735FCFFF71DFC0020C8
:1010C000494626E0349200202077696474683A2506
:1010D000780D0A00206865696768743A25780D0AFA
:1010E0000000000020746F74616C706F696E743A58
:1010F00025640D0A00000000FEFFFF6000100240A2
:10110000000C024004FB050338F813200A80401C41
:1011100080B2A842F6D3641CA4B2BC42C8D35DE539
:101120002DE9FE4F161ACDE900104FF000085D1AA8
:1011300047464FF0FF30002E02DD4FF0010102E084
:1011400003D14FF000018B4602E08346C6F1000652
:10115000002D02DD4FF0010002E003D14FF000004E
:10116000824602E08246C5F10005AE4201DD34460A
:1011700000E02C46601C4FF00009029018E0009837
:1011800081B2019880B2FFF7D9FCB0442F44A0454A
:1011900004DD0198A8EB040858440190A74203DD40
:1011A00000983F1B5044009009F101001FFA80F99C
:1011B00002998945E3DDBDE8FE8FF0B51C46154672
:1011C0000E4607460B46FFF7ABFF3A46234631462D
:1011D0001046FFF7A5FF23462A4619463846FFF773
:1011E0009FFF2A4623463146BDE8F040104697E768
:1011F0002DE9FC4F80460025144603200F46A0EB46
:10120000440649E0381B81B208EB050A01901FFA39
:101210008AF0FFF793FC781B81B208EB0409009079
:101220001FFA89F0FFF78AFC07EB050B1FFA8BF119
:101230001FFA89F0FFF782FC07EB04091FFA89F116
:101240001FFA8AF0FFF77AFCA8EB050A1FFA89F16A
:101250001FFA8AF0FFF772FCA8EB04091FFA8BF162
:101260001FFA89F0FFF76AFC019881B21FFA8AF031
:10127000FFF764FC009881B21FFA89F0FFF75EFC6B
:101280006D1C002E03DA06EB8506B61D04E0281B54
:1012900006EB8006641E0A36A542B3DDBDE8FC8F6E
:1012A0002DE9FF4F1D460C468A46580700D0012005
:1012B00000EBD500690810FB01F0203A00F0FF09AF
:1012C000D0B20026DFF8F4B1029044E00C2D11D02A
:1012D000102D14D0182D40D10298794900EBC00090
:1012E00001EB80004FF00008875D38060CD575488B
:1012F00002880DE00298744900EB4000F0E7734962
:10130000029801EB0010EDE70D9828B96D4842886E
:1013100021460098FFF71DFC7806070E641CBBF8F9
:101320000200A4B2A04218D9A4EB0A00A84209D135
:1013300000985446401C80B20090BBF800108142D7
:101340000BD906E008F1010000F0FF08B8F1080F22
:10135000CBD3761CF6B24E45B8D3BDE8FF8F02461C
:10136000012000E05043491EC9B2FBD270472DE96D
:10137000FF4F81B00026DDF838A01D469346814618
:101380003446B0464FEA5A0727E0281B401EC1B238
:101390000A20FFF7E4FFBBFBF0F00A21B0FBF1F2FB
:1013A00001FB120026B9691E8C4201DA48B1012600
:1013B0003030C2B207FB049080B25346CDF80080B3
:1013C00006E007FB049080B253462022CDF800804F
:1013D0000299FFF765FF641CE4B2AC42D5D305B0B7
:1013E000BDE8F08F2DE9FF4F81B04FF00008DDE937
:1013F0000EBA1E46814644460AF001054FEA5B07D5
:101400002CE0301B401EC1B20A20FFF7A8FF039951
:10141000B1FBF0F00A21B0FBF1F201FB1200B8F1D0
:10142000000F05D1711E8C4202DA48B14FF001085D
:101430003030C2B207FB049080B25B46009508E0F2
:101440005FEA0A6007FB049080B25B46009508D50E
:1014500030220299FFF724FF641CE4B2B442D0D3D7
:10146000BDE72022F5E72DE9F84F044600F0FF091B
:1014700010190D46DDE90AB61FFA80F8581987B22F
:101480004FF0000A12E0444503D305EB0B004C4635
:1014900085B2BD420FD25B4629462046CDF800A05A
:1014A000FFF7FEFE04EB5B0084B2761C3278A2F1FB
:1014B00020005E28E7D9BDE8F88F000034920020B4
:1014C000B2F60108140000204EEC0108C2F0010839
:1014D000012005F002BC7CB50121022004F04BF88C
:1014E0004FF44060012400908DF8044000258DF8F1
:1014F000065002208DF80500BA4E8DF80740694667
:10150000304603F01FFE600300908DF804508DF804
:10151000065003208DF805008DF8074069463046D7
:1015200003F010FEA102304603F086FEE1023046D1
:1015300003F082FE7CBD70B5AA48016821F4400129
:101540000160016841F480010160A74C0120C4F8EA
:10155000AC02C4F8A80204F52A7405F0BEFB00250D
:101560006560012005F0B9FB256070BD70B59D4830
:10157000016821F440010160016841F480010160CB
:10158000994C0020C4F8A802C4F8AC02012004F56C
:101590002A7405F0A2FB01252560284605F09DFB75
:1015A000656070BD70B58F480025016821F4400169
:1015B0000160016801608C4C0126C4F8AC623046C1
:1015C00005F08BFB44F6206007E06D1CADB2854250
:1015D00003D9FFF7CBFF012070BDD4F82C120029EE
:1015E000F3D1C4F8A862042005F077FB0020C4F80A
:1015F000A80270BD70B57C4C0025C4F8A85279488B
:10160000016821F440010160016841F4800101603A
:10161000C4F8AC52012004F52A7405F05EFB0220E8
:1016200005F05BFB0120206005F057FB256070BDD5
:1016300070B56D4C0025C4F8A8526A48016821F4C1
:1016400040010160016841F4800101600126C4F895
:10165000AC62304604F52A7405F03FFB2660012099
:1016600005F03BFB256070BD2DE9F04106465D4865
:10167000016821F440010160016841F480010160CA
:10168000594C0027C4F8A8723D464FF00108F009F4
:10169000C4F8AC027006060EC4F8A882012005F05A
:1016A0001CFBC4F8A872012005F017FB6D1CEDB2FD
:1016B000082DECD3BDE8F0812DE9F0474A4D002418
:1016C00081462746C5F8A8424648016821F44001F2
:1016D000016001680160012005F0FFFA00264FF06B
:1016E000010800BFC5F8A872012005F0F6FAC5F898
:1016F000A882022005F0F1FA6006040ED5F82C024B
:1017000008B1641CE4B2761CF6B2082EEAD3B9F133
:10171000000F04D0FFF76EFF2046BDE8F087FFF70B
:1017200087FFF9E72DE9F04116460F4604460025EC
:10173000FFF701FF3420FFF797FFFFF733FF2BA0E0
:1017400011F07AF8200AFFF78FFFFFF72BFF2CA08C
:1017500011F072F8E0B2FFF787FFFFF723FF2CA02C
:1017600011F06AF8002408E0385DFFF77DFFFFF70D
:1017700019FF050003D1641CE4B2B442F4D3FFF7AF
:10178000F5FE284696E72DE9F04115460E4604463B
:10179000FFF7D1FE3420FFF767FFFFF703FF200AB2
:1017A000FFF762FFFFF7FEFEE0B2FFF75DFFFFF716
:1017B000F9FEFFF7C0FE3520FFF756FFFFF7F2FEF8
:1017C00000246F1E09E0BC4201D0012000E000208F
:1017D000FFF772FF3055641CE4B2AC42F3D3BDE8AE
:1017E000F041C3E600040240008040420D0A0D0AA9
:1017F00020312061636B206F6B2E200D0D0A0000DD
:1018000020322061636B206F6B2E200D0D0A0000CB
:1018100020332061636B206F6B2E200D0D0A0000BA
:1018200070B5D24C0025C4F8B852902004F52E743F
:1018300000F0AAF9002000F0A7F9002000F0A4F9B8
:10184000002000F0A1F9FF2000F09EF945EA0025F4
:10185000FF2000F099F928430121216070BD7CB57B
:101860000121022003F087FE0121402003F083FEC6
:101870004FF48040012400908DF8044000208DF842
:10188000060003208DF805008DF807406946B8482A
:1018900003F058FC8020B74D00906946284603F0BD
:1018A00051FC8021284603F0C7FCB048C0F8B8427C
:1018B00000F082F9002000F0DCF9FFF7B1FFAE493B
:1018C00008807CBD10B5A94C0020C4F8B8020520E2
:1018D00004F52E7400F058F9FF2000F055F90121AD
:1018E000216010BD70B5A14C05460020C4F8B802B7
:1018F000012004F52E7400F047F9284600F044F961
:101900000120206070BD10B5984C0020C4F8B802CA
:10191000062004F52E7400F037F90120206010BD78
:1019200010B5924C0020C4F8B802042004F52E74BF
:1019300000F02AF90120206010BD2DE9F0418B4E06
:101940000746002015460C46C6F8B802032000F0F2
:101950001BF9C4F3074000F017F9C4F3072000F0A7
:1019600013F9E0B200F010F9002405E0FF2000F0C8
:101970000BF93855641CA4B2AC42F7D30120C6F869
:10198000B802BDE8F08110B5FFF79CFFC007FBD19E
:1019900010BD2DE9F04115460C460746FFF7B3FF91
:1019A000724E0020C6F8B802022000F0EDF8C4F331
:1019B000074000F0E9F8C4F3072000F0E5F8E0B2D2
:1019C00000F0E2F8002404E0385D00F0DDF8641C6B
:1019D000A4B2AC42F8D30120C6F8B802BDE8F04189
:1019E000D1E72DE9F0410746C8B2C0F580740E4634
:1019F0001546A24200D814464FF48078224631465C
:101A00003846FFF7C6FFA542BBD0281B2744264413
:101A100085B24446A542F1D82C46EFE7B1E770B550
:101A20000446014655A010F007FF2403FFF76BFFA3
:101A3000FFF7A9FF4D4D0020C5F8B802202005F59D
:101A40002E7500F0A1F8C4F3074000F09DF8C4F330
:101A5000072000F099F8E0B200F096F80120286025
:101A6000BDE870408FE72DE9F05FC1F30B06DFF8AA
:101A700014810F0BC6F58054894682461546A24252
:101A800000D8144639038B464FF480524046FFF786
:101A900054FF002006E0321818F80210FF2903D185
:101AA000401C80B2A042F6D3A04223D23846FFF7B2
:101AB000B6FF002007E000BF1AF800208319401C81
:101AC00008F8032080B2A042F6D359464FF4805262
:101AD0004FEA0800FFF785FFA5420FD0281BA2445C
:101AE000A144002685B24FF480547F1CA542C9D87A
:101AF0002C46C7E7224649465046EBE7BDE8F09F33
:101B000010B5FFF700FFFFF73EFF184C0020C4F8A8
:101B1000B802C72004F52E7400F036F801202060CA
:101B2000BDE810402FE710B5104C0020C4F8B802F3
:101B3000B92004F52E7400F027F801202060BDE8DC
:101B40001040032005F0C9B810B5084C0020C4F8B7
:101B5000B802AB2004F52E7400F016F801202060C6
:101B6000BDE81040032005F0B8B8000000804042F6
:101B700000040240001802401800002066653A2563
:101B8000780D0A004292002070B5404C05460221B3
:101B9000204605F02AF80028F9D02946204604F00E
:101BA000F7FF0121204605F020F80028F9D0204653
:101BB00004F0ECFFC0B270BD2DE9F043012187B005
:101BC000084603F0D8FC4FF480590121484603F041
:101BD000FAFC02268DF8186000248DF81A400320C4
:101BE0008DF81900DFF8A8803825012705958DF8B4
:101BF0001B7005A9404603F0A5FA052203214046C3
:101C000003F029FB05220421404603F024FB0522B2
:101C10001146404603F01FFB0121484603F005FD35
:101C20000021484603F001FDADF800404FF48270FA
:101C3000ADF80200ADF808703002ADF80C50ADF808
:101C40000440ADF80A00ADF80E4007200F4CADF887
:101C50001000ADF806606946204604F09FFE0121A1
:101C6000204604F02FFFFF20FFF78EFF07B0BDE8EE
:101C7000F08301460548028822F03802028002887B
:101C80000A430280012104F01DBF00000030014022
:101C900000040240F74900200860091D0860091D82
:101CA0000860091D0860F34924310860091D0860B7
:101CB000091D0860EF4AF04938321160111D0860B3
:101CC00070470021012803D010B126210846704733
:101CD000EA4A5070FAE7E74A121D116821F0FF0145
:101CE0000143116070472DE9FC5F0025E44C00952D
:101CF0004FF4806801954027C4F81080C4E902754C
:101D00000E464FF0080B1021C4E900B1A946204649
:101D100004F068FD102001F0C1FA00284ED1D74828
:101D2000BA464F460089000420603720C4E9010A02
:101D3000C4E90398204604F055FD372001F0AEFABF
:101D400000283BD1411E04F11400C0E9001B3021E2
:101D500081600221C0E903170121416104F068FD9F
:101D60003320C4F808A0C4E90070C4E90378204611
:101D700004F038FD332001F091FA04001ED1BD4F6C
:101D80004FF4001AE946343740F22A68386810EAFE
:101D9000080F0BD1504604F0AAFD0028F6D004F03D
:101DA0006BFD49F825006D1C012DEFD9082004F0CA
:101DB0009EFD28B1082004F0A3FD0420BDE8FC9F8F
:101DC000022004F094FD20B1022004F099FD0220CD
:101DD000F4E7202004F08BFD20B1202004F090FDDA
:101DE0000620EBE74FF40075284604F080FD20B193
:101DF000284604F085FD0720E0E740F2FF5004F09C
:101E00007FFD009800BA7060019800BA30602046EB
:101E1000D4E72DE9FC47002580460095284601952A
:101E200004F0FFFC800102D50E20BDE8FC87934F33
:101E30006946388980B2FFF756FF0028F5D1372070
:101E40008F4C402601994FF0060A4FF48069B8F193
:101E5000010F1ED0C90334D53989C4F81090090484
:101E6000C4E90010C4E90265204604F0BBFC372039
:101E700001F014FA0028D8D1C4E9005AC4F810902F
:101E8000C4E902657E4804F0ADFC062001F006FAC4
:101E9000CBE7490315D53989C4F810900904C4E982
:101EA0000010C4E90265764804F09CFC372001F07C
:101EB000F5F90028B9D10220C4F81090C4E9000A4D
:101EC000DEE72520B1E72DE9F04101466B48002609
:101ED0000078032814D018B1012801D0022827D196
:101EE000B1F5805F0CD0664C4FF400670025183CBC
:101EF000B9420ED10120FFF78CFF060003D017E096
:101F00002720BDE8F081257525606560C4E902578A
:101F100009E00020FFF77DFF060009D12575256047
:101F20006560A560E56056482561183804F030FC0E
:101F30003046E6E7524910B5086007204860402067
:101F400088600020C8604FF480600861084604F093
:101F500049FCBDE81040072001F0A0B92DE9F0438D
:101F60004649DFF81C9191F800C080F856C00989F5
:101F700009F12C09A0F85410D9F800100A0E9409A0
:101F80000470C2F38304447002F0030282700A0CEE
:101F9000C2700A0A02714171D9F80470390E090140
:101FA000C180C288C7F3074142EA1112C28001F022
:101FB0000F010172C7F30722D1094172C2F38011E8
:101FC0008172C2F34011C172C2F30011017300218A
:101FD00041734B469E680123350EC6F30744C6F392
:101FE0000728BCF1000F09D0BCF1010F06D0BCF1ED
:101FF000030F03D0BCF1020F44D059E09207120D39
:102000000261FAB2076947EA82020261026942EAA2
:1020100095120261C5F3C202027505F0070242750E
:1020200062098275C4F38202C275A207520F02765A
:10203000047E424644EAD21404760469077EBF1C3B
:1020400003FA07F5641CA4FB05784FEAE57C01FB65
:10205000058504FB0C5590F808C003FA0CF4A7FBA7
:1020600004C8046505FB048407FB0144C0E912C4ED
:102070001EE00000002C0140FF07C0001C000020F3
:1020800060A20020BA06920A0261026942EA0522B1
:10209000026102692243026104694246641CCD0464
:1020A00045EA5435E404C0E912454FF40074046570
:1020B000C2F3801444769206520E00F81A2FF2B240
:1020C000057845EAD21500F8015B02F07F0200F8BE
:1020D000012BD9F80C40220ED50900F8015BC2F3A0
:1020E000411500F8015BC2F3820500F8015B92071D
:1020F000120F02700578C4F3074245EA921500F802
:10210000015BC2F340150570417002F0010282705C
:10211000C4F30722D509C570C2F380150571C2F357
:1021200040154571C2F300158571C2F38105C57173
:1021300002F003020272C4F3460242728372FE4C42
:102140002268150E0573150C2D02C581C689C2F3D0
:1021500007252E43C6811206026162680669150EC4
:1021600046EA054505610669C2F3074546EA0525C5
:1021700005610669C2F307252E4306610275A26850
:10218000150E4575150C2D0685618669C2F3072568
:1021900046EA054585618569D2B245EA0222826137
:1021A000E268856945EA12658561057FC2F30744E7
:1021B00045EA141505772407240DC483C58BC2F3A3
:1021C00007242543C583C2F3460280F8202080F807
:1021D00021300846BDE8F08310B5D84800240168D6
:1021E00011F0450FFBD0480702D50324042003E07B
:1021F000C80705D00124204604F082FB204610BD0C
:1022000040F2FF50F8E72DE9F84F01200025ADF826
:10221000000004F0E1FAA8B3DFF8249399F8000075
:1022200004286AD0C44C4FF0C00A3C3C002602206F
:10223000C4F808A0C4E900604FF48068C4E90368EA
:10224000204604F0CFFAFFF7C7FF05001CD104F0C9
:10225000E8FAB94F3860042004F0E3FA7860082007
:1022600004F0DFFAB8600C2004F0DBFAF86099F8AB
:1022700000004F4650B1012808D0062806D0022899
:1022800004D014E0FFE72520BDE8F88F0320E4E840
:102290000260402084E84101A748083C3C3804F033
:1022A000A1FA6946032001F009F80500ECD138785D
:1022B000042822D0BDF80000B86000042060092086
:1022C000C4E9010AC4E903689B483C3804F08AFA6F
:1022D000FFF782FF0500D7D104F0A3FA964C103C1B
:1022E0002060042004F09DFA6060082004F099FA50
:1022F000A0600C2004F095FAE0602846C4E72DE9C0
:10230000F05F8D484FF00009543876210175C0F810
:102310000090C0F80490C0F80890C0F80C90C8462F
:102320004F46C0F8109004F033FA032004F050FA3E
:10233000012004F049FA804C4FF480653C3C204673
:1023400027606760A760C4E9037504F04BFA4FF497
:10235000803A564601E0761E1CD0802004F0C7FA71
:102360000028F8D0B6B140F2FF5004F0C9FA4FF49B
:10237000D5702060211D08204026256181E8C1001C
:102380006D483C3804F02EFA6C4A504611684FF004
:10239000370B05E00320BDE8F09F68490968401E3F
:1023A00011F0450F12D008B1480712D5042004F0EF
:1023B000A7FAA660C4E9007B5F48C4E903753C380E
:1023C00004F010FA372000F069FF0CE00028E4D197
:1023D000ECE7480602D5402004F092FA5848012163
:1023E0004FF080480170A660C4E9007BC4E9037522
:1023F0005148BA463C3804F0F5F9372000F04EFF5A
:10240000070043D1A660C4E900AB4B48C4E903A56B
:1024100057463C3804F0E6F9372000F03FFF00282B
:10242000B9D1484948EA01002060211D29202561D1
:1024300081E8C10040483C3804F0D4F93F49002706
:10244000086810F0450FFBD0400704D5032704208F
:1024500004F056FA1AE040F2FF5004F051FA00205E
:1024600004F0DFF9C10F09F1010903D14FF6FF7143
:102470008945C7D34FF6FF72914501D31B208AE7E8
:1024800010F0804F02D02E4802210170384682E7BA
:10249000FEB501212C4803F06EF80121CC02204644
:1024A00003F091F80121204603F0BFF84FF47C506F
:1024B000009002208DF804008DF80500234E0125C0
:1024C0008DF807506946304602F03CFE0420204F4C
:1024D00000906946384602F035FE0C22082130464D
:1024E00002F0B9FE0C220921304602F0B4FE0C22A3
:1024F0000A21304602F0AFFE0C220B21304602F0DA
:10250000AAFE0C221146304602F0A5FE0C22022142
:10251000384602F0A0FE0021204603F086F8FFF7BF
:10252000B9FB04F029F931208DF8080000208DF85E
:1025300009008DF80A000DE09CA20020342C014017
:102540001C000020000010800C0040000008024029
:10255000000C02408DF80B5002A802F010FBFFF7B0
:10256000CEFE88B9FFF74FFE70B9FA48FFF7F6FCC8
:1025700050B9F848B0F854000004FFF7DBFC18B974
:102580002046FFF7A0FC18B1F3490978032905D1CB
:102590000020FFF7A0FB0020FFF793FBFEBD10B566
:1025A0000024204604F014F9204610BD70B5EB4C11
:1025B00090B015460646204604F053F80028FAD19C
:1025C000204603F049FF4FF0006000900021CDE964
:1025D0000351E348CDE901060015CDE9051080005F
:1025E00007908000CDE908014FF440300A900420A4
:1025F0000B9003200C904FF400000D9080100E9073
:102600006946204603F0B0FF2021204603F0F9FF81
:102610000121204603F0E1FF10B070BD002102E06F
:102620004008491CC9B20128FAD1084670472DE973
:10263000F84F17460A9D06004FF0FF346DD0DFF8C3
:1026400020B30020ABF1540BCBF80000DFF808A357
:102650009AF80010022903D10D02570A47EAC3571E
:1026600080460146BB484FF0FF323C388160C0E9EC
:1026700000210122C160C0E9041204F0D9F8B84871
:102680006C380068800101D50E20FDE5681EB0F5AC
:10269000006F42D2054240D12846FFF7BFFFDFF866
:1026A000B4920090A9F1500948461021C0E90051A8
:1026B0004021C9E902180901C9F8101004F092F884
:1026C000102000F0EBFD0028DFD10098010109F196
:1026D0001400C0E901514FF0FF3101600121416157
:1026E0000221C0E9031804F0A3F848461121C0E90B
:1026F00000714021C9E902180901C9F8101004F05D
:1027000071F8112000F0CAFD0700BED19AF801103F
:10271000504621B101294CD072E02620B4E5FDF7E6
:10272000BEFD8F488E4A4C388E4B40F22A650DE034
:10273000090409D50021146846F82140491C0829DC
:10274000F9D31C46203601E094B3641E0168294287
:102750000168EDD0844C090704D5206840F00800DA
:10276000206051E00168890705D5206840F002002B
:102770002060022088E50168890605D5206840F0C0
:102780002000206006207FE50168890507D52068C4
:1027900040F400702060072076E5116802C60168E9
:1027A0008902FAD4FDF77DFD40F2FF50206027E05A
:1027B0002AE04146D046C170817001716A48001D0F
:1027C000016840F22A3211430160DBF8001041F049
:1027D0000801CBF80010002229463046FFF7E6FE3C
:1027E0005E494046583900E0641E0A68120103D46D
:1027F00002790AB9C2782AB134B1C17801B1C77877
:10280000384641E5002CEFD104203DE52DE9FF5F7E
:1028100082B05148DDE910870299C1605249002613
:102820000C3914464FF0FF350E600078022804D1B1
:10283000540A4FF4007844EAC354DFF81891012198
:10284000A9F13C094846C9F80860C9F81410C0E964
:102850000056C9F80C60AB46C9F8106003F0E8FFF9
:10286000414824380068800102D50E2006B092E568
:10287000A8F10100B0F5006F20D218EA000F1DD1B9
:102880004046FFF7CBFE0090324810215038B24648
:10289000C0E900814021C0E902160901016103F08D
:1028A000A1FF102000F0FAFC0600DFD13846012F0E
:1028B00034D900FB08F7B7F1007F01D32620D5E714
:1028C00000984FF0010801014846564640F804BB05
:1028D000D146E0E80271022180E842011D483C38FF
:1028E00003F0A6FFDFF86CA01221AAF1500A5046AF
:1028F0004FF0400BC0E90041CAE902B64FF48061D5
:10290000CAF8101003F06EFF122000F0C7FC06009A
:10291000ACD1114C607810B1012879D0A4E0FDF75A
:10292000BEFC11490E4A091FDFF8388040F22A33F5
:102930001EE000041AD5D4F80C700020D2F800C0B4
:1029400047F820C0401C0828F8D3E06845462030EE
:10295000E0600DE0B0A200201C000020586402409E
:10296000802C0140FFFF0700382C0140F5B36D1E9D
:10297000086818420868DCD0FA4D000704D52868BA
:1029800040F00800286065E00868800705D52868E1
:1029900040F002002860022068E70868800605D53C
:1029A000286840F02000286006205FE7086880055E
:1029B00009D5286840F400702860072056E713689E
:1029C000E06808C0E06008688002F8D40868C005C4
:1029D00018D5207818B1012801D0022812D1494613
:1029E0000C228AE806084FF4806101E032E00FE033
:1029F000CAE90391DC4803F0F5FE0C2000F04EFC20
:102A00000600C9D1FDF74DFC40F2FF5028602BE0D5
:102A100084F8039084F8028084F80490D148001D63
:102A2000016840F22A3211430160CE480C38016837
:102A300041F008010160394600220298FFF7B6FD17
:102A4000CA4800E06D1E0168090102D4002DF9D1C9
:102A500000E00DB9042009E7207910B9E0780028DA
:102A6000FAD0E07800B1E6783046FFE67CB504465F
:102A70000025BF48009501950089BB490004086006
:102A80000D2048604020C1E90205000108610846A8
:102A900003F0A8FEB348001F0168019111F0450F33
:102AA000FAD00198400702D50324042004E00198DD
:102AB000C00705D00124204603F022FF20467CBD3C
:102AC00003F0AAFE01900D2838D140F2FF5003F028
:102AD00017FF002003F0A5FE0090C0F343202070F4
:102AE000A449009808425DD00098002801DA1C2013
:102AF0007CBD400001D509207CBD0098800001D537
:102B00000A207CBD0098C00001D50B207CBD009838
:102B1000000101D50C207CBD0098400101D50D209D
:102B20007CBD0098C00101D50E207CBD009800023C
:102B300001D50F207CBD0098400201D510207CBD3E
:102B40000098800201D511207CBD0098C00201D5FB
:102B500012207CBD0098000301D513207CBD009895
:102B6000400301D514207CBD0098800301D51520B9
:102B70007CBD0098C00301D516207CBD00980004E0
:102B800001D517207CBD0098400401D518207CBDDC
:102B90000098800401D519207CBD0098000701D55C
:102BA0001A207CBD28467CBD2DE9FE4F4FF0000564
:102BB0000C9C90469A4606008DF800502F460294D1
:102BC0005AD068480C3805606748691E1430856023
:102BD000C0E900150121C560C0E9045103F028FED9
:102BE000604824380068800102D50E20BDE8FE8FC1
:102BF000DFF87C9199F8000002283FD0601EB0F504
:102C0000006F39D2601E044236D12046FFF706FD20
:102C1000DFF854B1019058461021C0E9004140212D
:102C2000CBE90215AA460D01CBF8105003F0DAFDEE
:102C3000102000F033FB0028D8D14D48D946008938
:102C40000104CBF8001058460D214FF0400BC0F89E
:102C50000CA0C0E9011B29464348C9F8101003F035
:102C6000C1FD0D2000F01AFB0028BFD13D492439D9
:102C700008684FF0FF3522E02620B7E74FEA5820DA
:102C80004FF4007440EACA58BCE739486D1E008909
:102C90000104C9F800100D21C9F80CA0C9E9011BF5
:102CA0004FF480613048C9F8101003F09BFD0D20EF
:102CB00000F0F4FA002899D12A4824380068C005A9
:102CC00002D4002DE1D134E095B348461821C0E983
:102CD0000081C9E902BA4FF4806155462248C9F81B
:102CE000101003F07FFD182000F0D8FA0028C4D19E
:102CF000DFF87CA04FF0FF3929468AF8025001988E
:102D0000A846020118484D461430C0F80090C0E9AA
:102D100001420122C160C0E9041203F089FD9AF862
:102D2000010040F2FF5B30B15746012866D097E0C2
:102D3000FFE729205AE7FDF7B2FA0A4A0949483263
:102D4000091F40F21A642BE00868400426D5029857
:102D5000C01B202817D283074FEA900300D05B1CCA
:102D600000200DE0382C014060A2002000640240E9
:102D70001C00002008E0FFFD20CE1560401C3F1D18
:102D80009842F9D308E0002056F820301360401C28
:102D90000828F9D320362037FE4D01E0EDB36D1E33
:102DA00008682042D0D0082003F0A1FD18B1082007
:102DB00003F0A6FD52E0022003F099FD20B10220AD
:102DC00003F09EFD022011E7102003F090FD20B1DA
:102DD000102003F095FD052008E74FF4007420460D
:102DE00003F085FD20B1204603F08AFD0720FDE6B3
:102DF000FDF757FA584603F083FD31E087F803806A
:102E000087F8028087F80480012140F21A3003F02D
:102E100064FD40222146304600E01FE0FFF7C6FB7C
:102E2000012003F056FDDC4800E06D1E0168090139
:102E300002D4002DF9D102E00DB1484603E0FFF7BE
:102E400027FB0BE0401E397909B9F97821B128B187
:102E5000F87828B1F878C9E60028F3D10420C5E64F
:102E6000584603F04DFD6846FFF700FE0028AAD142
:102E70009DF800100729F6D00629F4D0B6E62DE912
:102E8000FE4F0600DDE90C454FF0000105FB04F0A4
:102E9000914698468DF800100F4602903FD0BF48EB
:102EA0008B460160BE484A1E8160C0E900210122B4
:102EB000C160C0E9041203F0BBFCB84818380068D0
:102EC000800101D50E2091E6B6480078022828D06E
:102ED000601EB0F5006F22D2601E04421FD1204652
:102EE000FFF79CFBDFF8B8A20190AAF1140A504644
:102EF0001021C0E900414021CAE9021B0901CAF8BA
:102F0000101003F06FFC102000F0C8F90028DAD18F
:102F1000012D63D905FB04F8B8F1007F08D3262002
:102F200064E64FEA59204FF4007440EAC859D3E7E9
:102F30009C48007818B1012801D0022825D1994871
:102F4000402400890104504602C0372180E812085D
:102F5000934821011438CAF8101003F043FC3720BD
:102F600000F09CF90028AED15046172120C080E81F
:102F700012088B4821011438CAF8101003F032FCF3
:102F8000172000F08BF900289DD150461921C0E987
:102F900000914021CAE9021B814809015C461438AE
:102FA000CAF8101003F01EFC192000F077F9002871
:102FB00089D101984FF0FF35010179484FF0010B9D
:102FC000A1460560C0E90181C460C0E9044B03F07B
:102FD0002FFC744C607810B101287CD0ABE0FDF779
:102FE0005EF96E4A6D495432083140F21A3324E0DA
:102FF000086840041ED50298C01B20280FD2850700
:103000004FEA900000D0401C002505E056F804CBA4
:10301000C2F800C06D1C3F1D8542F7D308E00020B8
:1030200056F820501560401C0828F9D32036203768
:10303000584D02E0002D7CD06D1E08681842D7D094
:10304000082003F054FC18B1082003F059FC70E08C
:10305000022003F04CFC20B1022003F051FC0220BE
:10306000C4E5102003F043FC20B1102003F048FC1D
:103070000520BBE54FF40075284603F038FC20B16D
:10308000284603F03DFC0720B0E54FF4807003F0C4
:103090002EFCC0B1207818B1012801D0022812D12D
:1030A00050460C22C0E900924022CAE902293C485D
:1030B00011011438CAF8101003F094FB0C2000F032
:1030C000EDF80028CCD1FDF7ECF840F2FF5003F00A
:1030D00017FC30E0FFE784F8039084F802B084F82E
:1030E0000490012140F21A3003F0F7FB41464022E0
:1030F0003046FFF75BFA012003F0EBFB2946284638
:10310000254A00E0401E13681B0102D40028F9D1B3
:1031100000E018B9FFF7BCF90BE0491E207908B9A7
:10312000E07820B129B1E07828B1E0785EE50029A7
:10313000F3D104205AE540F2FF5003F0E1FB68466A
:10314000FFF794FC00288BD19DF800100729F6D0DA
:103150000629F4D04AE570B5124C0020A178012967
:1031600009D10E4924390860091D40F24C4008601D
:103170000C2000F093F8E0704FF48075284603F0BF
:10318000CCFB0021284603F0A8FB01202071E07849
:1031900070BD0000FFFF0700006402402C2C0140BE
:1031A00074A200201C000020D5E72DE9FC478146D1
:1031B0005D480027904600783D460C4608B1E50D75
:1031C0004C025FEA89714FF4007018D000268246E5
:1031D00012E07002021945EBE073CDF800A05348ED
:1031E000FFF725FA07465246504948460FF081FE40
:1031F000761C09F50079F6B24645EAD30AE0B8F143
:10320000010F0AD0CDE9000822462B464846FFF7B9
:10321000FDFA07463846BDE8FC87009022462B465B
:103220004846FFF704FAF4E72DE9FC470C463E490F
:103230008046002009781746054609B1E50D64026D
:103240005FEA88724FF4007117D00026894611E0BA
:103250004A46414635480FF04CFE7002021945EBD4
:10326000E073CDF800903148FFF79EFC761C08F51E
:103270000078F6B2BE42EBD3CDE7012F07D0CDE9FF
:10328000001722462B464046FFF7F9FDC3E72246CA
:103290002B4640460091FFF787FCBCE724480168B5
:1032A00011F0450FFBD0224940F2FF50091D086084
:1032B0001F482038006800F00800704770B50C46C1
:1032C0001B4906460025086810F0450FFBD0410752
:1032D00002D50324042003E0C00705D001242046C2
:1032E00003F00EFB204653E703F096FAB04212D1EA
:1032F00040F2FF5003F004FB002003F092FA10F4B8
:10330000604F03D0810404D5132041E7000C2080D6
:1033100007E0410401D510203AE7000401D50F2051
:1033200036E7284634E700001C00002008A30020F0
:10333000342C01407CB50121022002F01CF901204F
:103340008DF8040000208DF8060003208DF805009C
:1033500002200B4D4FF480448DF80700009469461D
:10336000284601F0EFFE2146284601F065FF4FF4A4
:10337000FA7003F0D1FC2146284601F05FFF7CBDC6
:10338000000402401CB54FF6FF70FDF7A5FCFC4C95
:103390001F20FCA120801020CDE90001FA48102355
:1033A000C82200880021183880B2FEF75CF84FF47C
:1033B000784020801CBD08B5002A06D00244521E69
:1033C000009392B20B46FDF724FE08BD2DE9FF5F86
:1033D00080460E4640F2C32050434FF47A71B0FB52
:1033E000F1F702FB02F000EB520B14464FF6FF70B0
:1033F00000EA4202A8EB040080B231467F1C039B26
:10340000FFF7D9FF012538E005FB05F004FB0401B7
:1034100059451BD9BC4218D96800A0F102093019DE
:1034200081B2A8EB050000F1010A1FFA89F21FFA28
:103430008AF0039BFFF7BFFF301B81B21FFA89F2AE
:103440001FFA8AF0039BFFF7B6FF641E4FF6FF706A
:1034500000EA4402701981B2A8EB040A91461FFAEF
:103460008AF0039BFFF7A7FF701B81B24A461FFA41
:103470008AF0039BFFF79FFF6D1CBD42C4D9BDE8D6
:10348000FF9F884201D9401A00E0081A80B27047B5
:103490002DE9FF5F4FF00008DDF838A047465045A2
:1034A000EDD35245EBD35145E9D35345E7D3161A33
:1034B0005D1A029000914FF0FF30002E02DD4FF0B8
:1034C000010102E003D14FF000018B4602E0834688
:1034D000C6F10006002D02DD4FF0010002E003D12D
:1034E0004FF00000019002E0C5F100050190AE42EE
:1034F00001DD344600E02C46601C4FF000090390CB
:103500001CE00098524681B202980F9B80B2FFF7F0
:103510005DFFB0442F44A04505DD0299A8EB0408E7
:1035200001EB0B000290A74204DDDDE90001084435
:103530003F1B009009F101001FFA80F903998945AA
:10354000DFDD9CE788B0904D904E0DF10808706863
:103550008047002406EB440728883A8982422DD20E
:103560007B8A6888834229D238F824104046A1F526
:103570007F4CBCF1FF0C04D100EB840120F8242027
:103580004B80DFF80CC2022108EB84093CF814C020
:10359000CDE9001CB9F8021038F82400FFF778FFD5
:1035A000398928F824107A8AA9F80220288818383E
:1035B000814203DD142A01D2FFF7E4FE641CE4B269
:1035C000052CC7D3052003F0A7FBC0E72DE9F04188
:1035D0000E4680464FF0FF37FDF7ADFF3420FEF773
:1035E00043F8FDF7DFFF0446002509E018F8050061
:1035F000FEF73AF8FDF7D6FF040003D16D1CEDB2DB
:10360000B542F3DBFDF7B2FF04B13C462046BDE80E
:10361000F0812DE9F0410D4607460221FFF7D6FF64
:103620000026FDF788FF3520FEF71EF8FDF7BAFFEC
:103630000024A5F1010809E0444501D0012000E083
:103640000020FEF739F83855641CE4B2AC42F3DBD5
:10365000FDF78CFF3046DAE72DE9F0474D4C0025A9
:103660004FF0D00984F800902E462F466570072150
:103670002046FFF7CEFF2078AB2820D06079A04607
:1036800000F00F044FF0070A012C1DD011D988F863
:10369000059004EB8409464688F806A0A9F10201CA
:1036A00008F10500FFF7B5FF09EB0600B0F80100CF
:1036B00046BA00F030F9404604EB840114E000F013
:1036C0002AF90020BDE8F087464688F8059088F87A
:1036D00006A00221701DFFF79CFFB6F80500E7E782
:1036E000425D6D1C1744EDB2A942F9D8274A4FF04C
:1036F000060CBE422CD15CB300211FE019B3042399
:1037000001EB8105EE185318855D2F0905F00F05B3
:103710001F7783F82150062D17D083F821C0064467
:1037200073781D01F378B67845EA131566F31F1315
:1037300002EB4106491C35817382C9B2A142DDD337
:10374000E4B1002018E00023DAE783F821A0E6E7DF
:10375000017801240909117782F821C041780B0111
:10376000C17898F8020043EA111360F31F11138126
:1037700051820020401CC0B2A042FBD32046A1E7EA
:1037800014000020525354003492002030000020D6
:103790000E04020808A5002010B5FDF79CFEAFF24C
:1037A000471064494860012010BDFFB5099E002EF6
:1037B00048D00A2E00D90A2602248DF800400024A1
:1037C00027463DE0155D8DF801501D5D8DF80250D6
:1037D00030F814508DF803502D0A8DF8045031F84C
:1037E00014508DF805502D0A8DF80650E4B18DF86F
:1037F0000D70641CE4B2B44219D2155D8DF8075007
:103800001D5D8DF8085030F814508DF809502D0AC0
:103810008DF80A5031F814508DF80B502D0A641CA5
:103820008DF80C50E4B20BE08DF80D60E1E7072550
:103830004FEA0D0C0CF805706D1CEDB20D2DF9D38F
:10384000B442BFD3FFBD2DE9F14F3A4E0024361FDD
:103850004FF00A0B307882B0401CC0B2B0FBFBF2D4
:103860000BFB1201DFF8CC80A246A1462746307040
:1038700009B10A2832D2012202A94FF45040FDF7C3
:1038800082FF9DF80800C1062CD000F01F0040F018
:10389000C000454688F826004FF0010A95F826102A
:1038A0000AFA04F001420BD023480422694630F89A
:1038B0001400FDF768FF05EB4400A0F8089047826C
:1038C000641CE4B2052CE9D329894FF0010A0020D9
:1038D00019B9698A09B98DF8080030709DF8080097
:1038E000C00610D198F82600010602D520F080000D
:1038F00007E04FF6FF71A8F80810A8F8121000F0C2
:10390000E00088F826003078F02801D986F800B069
:103910005046BDE8FE8F08B5D0208DF8000000208D
:103920008DF80100AB208DF8020003216846FFF7F7
:103930004DFE08BD300000201804020810B5FA2022
:1039400003F0EAF901F001F8882001F094F801F0A1
:1039500035F8212001F08FF801F030F8302001F027
:103960008AF801F02BF801F00CF8BDE81040962021
:1039700003F0D2B910B5044600F0E7FF882001F04B
:103980007AF801F01BF8E02001F075F801F016F864
:10399000002001F070F801F011F800F0D6FF892046
:1039A00001F069F801F00AF8012001F08FF8208099
:1039B000012001F08BF86080012001F087F8A080E1
:1039C000012001F083F8E080012001F07FF82081E0
:1039D000002001F07BF86081BDE8104000F0D1BF0D
:1039E00070B50446FF20002231250FE0A35C58404B
:1039F0000823060602D585EA400000E040005B1E71
:103A0000C0B213F0FF03F4D1521CD2B28A42EDD3FC
:103A100070BD10B51446FFF7E3FFC0B2A04201D05D
:103A2000012010BD002010BD30B538482DED048BAD
:103A300081B0FFF79FFF354C022120788DF8000000
:103A4000A0788DF8010022798DF802206846FFF7F2
:103A5000E0FF10F0FF0F04D0012001B0BDEC048B9B
:103A600030BDBDF8000040BA1AF0F1FE9FED281BF2
:103A700053EC112B1AF0FEFE9FED278B53EC182B05
:103A80001AF030FD9FED261B53EC112B1AF0F0FFBE
:103A90009FED259B53EC192B1AF0ECFE1AF07AFEE1
:103AA00000EE100A224D0221B8EEC00A85ED000A90
:103AB000A0798DF80000207A8DF80100A27A8DF8A7
:103AC00002206846FFF7A5FF10F0FF0F01D002208B
:103AD000C3E7BDF8000040BA1AF0B9FE9FED151B10
:103AE00053EC112B1AF0C6FE53EC182B1AF0FAFC0B
:103AF00053EC192B1AF0BEFE1AF04CFE00EE100A21
:103B00000020B8EEC00A85ED010AA6E746A5002010
:103B10000000000000E0654000000000E0FFEF4012
:103B2000000000000080464000000000000024402B
:103B300078000020000000000000594070B5594E88
:103B4000594D00244021284602F04EFC36F814104E
:103B5000284602F0B1FB4021284602F03EFC002836
:103B6000F9D0641C042CEDDB70BD70B50546012155
:103B700088B0084601F0FFFC0121102001F023FD70
:103B80004FF4C060049002208DF814008DF81500E9
:103B900000248DF8164001268DF8176004A94348CB
:103BA00001F0D0FAADF80440ADF80640ADF8084099
:103BB000ADF80C400C203C4CADF80A00009569466D
:103BC000204602F0E2FA012240F22551204602F09E
:103BD000ECFB0121204602F049FB4FF4E06000F0CD
:103BE000C9FF25208DF8180003208DF819008DF8E5
:103BF0001A008DF81B6006A800F0C1FF08B070BD68
:103C000070B5294D40F22551284602F0F0FB0028FE
:103C100044D0284602F054FB224C241F16283ED0E4
:103C2000607800283AD0284602F04AFB20492278E2
:103C300021F81200521CD0B2207008282ED108881A
:103C400016282BD14888052828D10889897900EBC6
:103C5000012080B21AF0FBFD0D4645EC100B9FEDE4
:103C6000151B064653EC112B51EC100B1AF002FEFB
:103C70009FED121B53EC112B1AF08CFB41EC100B37
:103C800045EC116B53EC102B51EC110B1AF082FB2D
:103C90001AF0B0FD608000202070607070BD0120BF
:103CA0006070C0E784000020001001400000024066
:103CB00052A500209A9999999999A93F000000006E
:103CC00000003E401CB50121102001F054FC3820BA
:103CD000009002208DF8050001208DF804000020DE
:103CE0008DF806006946C54801F02CFA1CBD1CB5CC
:103CF000002110220223C14C01280BD0002808D13A
:103D00008DF8053000928DF804106946204601F0C8
:103D100019FA1CBD8DF8053001208DF804000092C1
:103D20008DF80610F1E706E06E21491E11F0FF0143
:103D3000FBD1401EC0B20028F6D170472DE9F041FA
:103D4000AE4E05460C462021304601F075FA00279C
:103D5000E8074FF01001304602D001F06DFA01E0A3
:103D600001F06CFA6D080821304601F065FA022076
:103D7000FFF7D9FF0821304601F060FA7F1CFFB23F
:103D8000082FE5D30025E0074FF01001304602D0A0
:103D900001F052FA01E001F051FA640808213046BE
:103DA00001F04AFA0220FFF7BEFF0821304601F079
:103DB00045FA6D1CEDB2082DE5D33046BDE8F04163
:103DC000202101F03BBA2DE9F0418C4C0546202121
:103DD000204601F031FA0026E8074FF01001204696
:103DE00002D001F029FA01E001F028FA6D0808215B
:103DF000204601F021FA0220FFF795FF0821204616
:103E000001F01CFA761CF6B2082EE5D30020FFF76D
:103E10006EFF00257E081021204601F0F9F910B14F
:103E200046F0800701E006F07F070821204601F0F8
:103E300003FA0220FFF777FF0821204601F0FEF980
:103E40006D1CEDB2082DE5D32021204601F0F6F9D6
:103E50000120FFF74CFF390907F00F0001EB81014A
:103E600000EB4100C0B2BDE8F08170B5054600210D
:103E70008E20FFF763FF68790A24B0FBF4F104FB9E
:103E80001101B0FBF4F001EB0010C1B28020FFF78C
:103E900055FF2879B0FBF4F104FB1101B0FBF4F0FD
:103EA00001EB0010C1B28220FFF748FFE878B0FBB9
:103EB000F4F104FB1101B0FBF4F001EB0010C1B20E
:103EC0008420FFF73BFFA878B0FBF4F104FB11015D
:103ED000B0FBF4F001EB0010C1B28620FFF72EFF1B
:103EE0006878B0FBF4F104FB1101B0FBF4F001EBD6
:103EF0000010C1B28820FFF721FF2878B0FBF4F151
:103F000004FB1101B0FBF4F001EB0010C1B28C20F6
:103F1000FFF714FFBDE8704080218E200EE710B53A
:103F20008120FFF750FF044600218E20FFF706FF97
:103F300044F08001BDE810408020FFE610B58120EC
:103F4000FFF741FF044600218E20FFF7F7FE2146D0
:103F5000BDE810408020F1E670B50546FFF7B2FEDF
:103F60000220FFF7E0FE254C2021204601F066F9F3
:103F70000821204601F062F900218E20FFF7DEFEC5
:103F80008120FFF720FF000603D52846BDE87040DA
:103F90006BE770BD10B58D20FFF715FF184C207032
:103FA0008920FFF710FF60708720FFF70CFFA070DB
:103FB0008520FFF708FFE0708320FFF704FF2071E2
:103FC0008120FFF700FF607121780EA00EF034FC15
:103FD000617810A00EF030FCA17812A00EF02CFC3D
:103FE000E17813A00EF028FC217915A00EF024FC36
:103FF0006179BDE8104016A00EF01EBC0010024012
:104000008C0000200D0A20796561723A2564200D2C
:104010000A200000206D6F6E74683A2564200D0A36
:1040200020000000206461793A2564200D0A2000F8
:1040300020686F75723A2564200D0A200000000088
:10404000206D696E7574653A2564200D0A200000A4
:10405000207365636F6E643A2564200D0A0D0A2093
:104060000000000002F008BF0FB42DE9FF41064632
:104070000CAC00250FE05C2915D000F101002529CA
:104080000B901ED0304602F017F98021304602F026
:10409000A4F90028F9D00B9801780029EBD1BDE8EC
:1040A000FF015DF814FB401C0B9001786E2903D0D2
:1040B00072291BD10D2100E00A21304602F0FCF8E4
:1040C00013E00178642914D073290FD180CC09E062
:1040D000304602F0F1F88021304602F07EF90028E7
:1040E000F9D07F1C39780029F2D10B98401C0B9035
:1040F000CBE702CC00276846002920D007DA4FF032
:104100002D028DF80020C1F1000100F1010042F202
:1041100010734FF00A0C00BF91FBF3F252EA070E46
:1041200006D002F1300700F8017B02FB13110127D2
:1041300093FBFCF3002BEFDC05706F460FE03020A3
:104140008DF800008DF80150F7E7304602F0B4F822
:104150008021304602F041F90028F9D07F1C3978DF
:104160000029F2D1C1E72DE9FE43FC4E0D469946E8
:10417000318814466FF30E0131800246F8A1FA48E7
:10418000FFF772FF55EA04002CD002AF4FF0080889
:104190000022CDE900874B46114610460CF07BFB10
:1041A0000022CDE900874FF47A73114610460CF0D7
:1041B00072FB31880020C1F30E01A6F50052505465
:1041C0001146EAA00EF038FB35B129462CB1A6F510
:1041D00000500EF001FE28B92146E5480EF0FCFD26
:1041E000002800D00120BDE8FE833EB5002402A9CE
:1041F0000820CDE900014FF47A732246214620467B
:104200000CF049FB4FF4FA752B460022D9A1DAA035
:10421000FFF7A9FF18B1DBA00EF00EFB3EBD641C3A
:10422000E4B20A2CF0D33EBD40F6C41328B10128F5
:1042300007D0022809D000207047D4A2CDA1D6A073
:1042400006E0D2A2CBA1D7A002E0D0A2C9A1D8A0FB
:1042500089E700B59FB00B460246D8A168460EF02C
:10426000F7FA41F288330022C2A16846FFF77BFFCC
:104270001FB000BD00B585B008B1012200E00022EA
:10428000D3A168460EF0E4FA4FF4FA730022B9A104
:104290006846FFF768FF05B000BDF0B5B9B00F463E
:1042A00006461D461446642101A80EF0E3FE16B131
:1042B000012E0BD103E03B46C9A2009402E03B462D
:1042C000C8A20094C8A101A80EF0C2FA052D06D21A
:1042D00001AB2A46C8A11AA80EF0BAFA04E001AA56
:1042E000CAA11AA80EF0B4FA4FF47A63CBA2A1A126
:1042F0001AA8FFF738FF39B0F0BD10B54FF4FA74C3
:10430000234600229BA1C9A0FFF72DFF002806D05D
:104310002346BDE81040C9A296A1C9A023E710BD5D
:1043200030B585B01D460C4638B10A468FA18E487F
:10433000FFF79AFE012005B030BD052D06D2931C73
:104340002A46C2A168460EF083FA04E0C4A168467A
:10435000921C0EF07DFA4FF47A752B460022C4A110
:104360006846FFF700FF2B460022C2A12046FFF758
:10437000FAFEE0E73EB5002202AD08244FF47A735E
:1043800011461046CDE900450CF085FABBA17648F0
:10439000FFF76AFE00224FF4FA7311461046CDE98A
:1043A00000450CF078FA3EBD10B54FF4FA730022C8
:1043B00070A1B3A0FFF7D7FEA0B1B5A16C480EF075
:1043C0000BFD08B1022010BDB4A169480EF004FD38
:1043D00008B1032010BDB4A165480EF0FDFC08B182
:1043E000042010BD002010BD2DE9FE43804640F69C
:1043F000B835284602F090FC5B4EA0A25BA1304687
:10440000FFF732FE41F28837384602F085FCA9A05A
:104410000EF012FAFFF7E9FE284602F07DFC28466E
:1044200002F07AFC4D4C20886FF30E0020800020B3
:10443000FFF7FAFE284602F06FFC4FF4FA730022F1
:104440004CA19EA0FFF78FFE49499FA00EF0F4F902
:10445000424643A13046FFF707FE384602F05CFCB7
:10446000434999A00EF0E8F9384602F055FC384669
:1044700002F052FC20880021C0F30E023C48944C0C
:104480008154A0606168084492A10EF0A5FC2060F0
:10449000002829D08E49314E143142360A1FCDE909
:1044A00000260291A6F14003121F8CA10EF060FBC2
:1044B0006069A6F14002CDE90060D4E9031390A041
:1044C0000EF0BAF99DA00EF0B7F902E06068401C4A
:1044D0006060206810F8011B20600A29F6D1284688
:1044E00002F01AFCA068CDE77DE6B0B51B4CC8B061
:1044F000002521886FF30E012180024672A11A481F
:10450000FFF7B2FD4FF47A77384602F005FC46A972
:1045100008200022CDE900013B46114610460CF070
:10452000BAF921880020124CC1F30E0160542146D3
:1045300065A00EF081F9204688A10EF04DFC45AA39
:1045400044A943A88DE8070033461A4687A104F121
:104550000D000EF00DFB03AF2AE10000E2C60020C3
:1045600025730D0A00000000004400402573000080
:10457000E2A600204F4B000041542B524553544FAC
:10458000524500004F4B0D0A000000006E6F206383
:1045900068616E676500000041542B43574D4F44DE
:1045A000453D310041542B43574D4F44453D32006A
:1045B00041542B43574D4F44453D330041542B4309
:1045C000574A41503D222573222C22257322000098
:1045D00041542B4349504D55583D2564000000007F
:1045E0005443500055445000222573222C22257339
:1045F000222C25730000000041542B434950535492
:104600004152543D25642C257300000041542B4336
:10461000495053544152543D25730000414C52457A
:10462000415920434F4E4E454354000041542B43C3
:1046300049504D4F44453D31000000003E00000010
:1046400041542B43495053454E44000041542B43A1
:10465000495053454E443D25642C2564000000001C
:1046600041542B43495053454E443D2564000000BE
:104670003E20000053454E44204F4B002B2B2B0077
:1046800041542B43495053544154555300000000AA
:104690005354415455533A320D0A00005354415477
:1046A00055533A330D0A00005354415455533A348C
:1046B0000D0A00000D0A0D0A0000000041542B43B2
:1046C0005753544154453F000D0A25730D0A00000D
:1046D000940000202B43574C415000002B43574C73
:1046E00041503A2825642C22255B5E225D222C2530
:1046F000642C22255B5E225D222C256400000000D4
:104700002065636E203D2025640D0A207373696463
:10471000203D25730D0A2072737369203D25640DB9
:104720000A206D6163203D25730D0A206368616E68
:104730006E656C203D2025640D0A00003D3D3D3D29
:104740003D3D3D3D3D3D3D3D3D3D3D3D3D3D3D3D99
:104750003D3D3D3D3D3D3D0D0A0000002B43495090
:10476000534E545054494D453A0000002822255BD1
:104770005E225D222022255B5E225D2220256420B0
:10478000256420256400000030788DF80C00307816
:104790008DF80D0043988DF80E0044988DF80F00A9
:1047A00045988DF81000795D35A00EF045F86D1C28
:1047B0002078411C21700A28E6D148B0B0BD00B570
:1047C0009FB00B46009202462FA101A80EF040F8C0
:1047D0004FF4FA730022AFF2642101A8FFF7C3FC83
:1047E00046E500B59FB00B46024632A168460EF082
:1047F0002FF84FF4FA730022AFF288216846FFF7D2
:10480000B2FC35E500B59FB0024630A168460EF017
:104810001FF84FF4FA730022AFF2A8216846FFF7A1
:10482000A2FC25E500B59FB00B4602462CA16846C8
:104830000EF00EF84FF47A73002230A16846FFF7AD
:1048400092FC15E500B59FB02DA168460EF000F86A
:104850004FF4FA73002229A16846FFF784FC07E5AC
:104860000EB5FFF7DFFF02A908200022CDE9000105
:104870004FF47A73114610460CF00DF801200EBD6E
:104880000D0A25630D0A000041542B4D5154545517
:104890005345524346473D302C312C222573222C60
:1048A000222573222C222573222C302C302C2222FC
:1048B0000000000041542B4D515454434F4E4E3D87
:1048C000302C222573222C25642C300041542B4D92
:1048D0005154545355423D302C222573222C310023
:1048E00041542B4D5154545055423D302C22257388
:1048F000222C222573222C312C3000004F4B00003B
:1049000041542B4D515454434C45414E3D300000D1
:104910001CB50121022000F02EFE4FF4407001244E
:1049200000908DF8044000208DF8060003208DF8DB
:1049300005008DF8074069467C4800F003FC7C4880
:10494000C0F8A042C0F8A4421CBD70B57748016809
:1049500021F440210160016841F480210160744C20
:104960000120C4F8A402C4F8A002042004F52874AD
:1049700002F0B3F900256560042002F0AEF925606D
:1049800070BD6A4810B5016821F4402101600168DA
:1049900041F480210160664C0020C4F8A002C4F8F4
:1049A000A402042004F5287402F097F90120206085
:1049B0006060BDE81040042002F08FB970B55B481C
:1049C0000024016821F44021016001680160584D14
:1049D0000126C5F8A462304602F07FF9C5F8A0624E
:1049E000012002F07AF907E0641CE4B2FA2C03D942
:1049F000FFF7C7FF012070BDD5F824020028F3D1CE
:104A0000C5F8A00270BD70B5494C0025C4F8A0528D
:104A10004648016821F440210160016841F4802189
:104A20000160C4F8A452022004F5287402F055F97C
:104A300001202060022002F050F9256070BD70B5A1
:104A40003B4C0025C4F8A0523848016821F44021AD
:104A50000160016841F4802101600126C4F8A4626C
:104A6000022004F5287402F038F92660022002F0D2
:104A700034F9256070BD2DE9F04106462B480168E8
:104A800021F440210160016841F480210160284C3B
:104A90000027C4F8A0723D464FF00108F009C4F8A1
:104AA000A4027006060E022002F017F9C4F8A082D4
:104AB000022002F012F9C4F8A072022002F00DF9EF
:104AC0006D1CEDB2082DE9D3BDE8F0812DE9F0476A
:104AD000814616480024016821F4402101600168E4
:104AE0000160134E254627464FF00108C6F8A07214
:104AF000022002F0F2F8C6F8A0826006040ED6F892
:104B0000240208B1641CE4B2012002F0E6F86D1C36
:104B1000EDB2082DEAD3B9F1000F04D0FFF773FF0F
:104B20002046BDE8F087FFF78AFFF9E7000402405E
:104B3000008040420948804709480047FEE7FEE7F9
:104B4000FEE7FEE7FEE7FEE7FEE7FEE7FEE7FEE73D
:104B500004480549054A064B70470000A7070008AE
:104B600089010008A8BC0120A8C20120A8BE01201C
:104B7000A8BE01202849084328490860704730B57D
:104B80000F22C47801780123FCB1244C246801F180
:104B9000E02104F4E064C4F5E064C4F30724C4F144
:104BA0000405E2404478AC408578154025432A014D
:104BB00081F80024007800F01F018B40400980003C
:104BC00000F1E020C0F8003130BD01F01F0083404B
:104BD0004809800000F1E020C0F8803130BD104A63
:104BE000114001430D48001F016070470B4A121D20
:104BF0000029116801D0014300E081431160704732
:104C00004FF0E0210428086903D020F00400086177
:104C1000704740F00400FAE70000FA050CED00E0F0
:104C200080FFFF1F8100A1F1C04148B143F2D200D3
:104C3000C1F800006FF070404860C1F8040170478F
:104C40004FF0204243F2DB001060F3E710B5D0E9EB
:104C500001121143D0E903231A431143426911435E
:104C600082691143C2691143026A1143426A1143C6
:104C7000826A1143C26A1143026B114302689200B7
:104C8000A2F1C04211608168082907D1016889003A
:104C9000A1F1C0410A6842F040020A60416BD1E9CB
:104CA000002342EA03128B688C891B0243EA044307
:104CB0001A430B8A42EA03520B7D896942EA036276
:104CC0000A4301688900A1F1C0414A60C16AB1F597
:104CD000804F08D000686FF070418000A0F1C040A4
:104CE000C0F8041110BD816BD1E9002342EA031220
:104CF0008B680C8A1B0243EA04531A430B7D8969B3
:104D000042EA036200680A438000A0F1C040C0F894
:104D1000042110BD00210222C0E900128160C1609F
:104D2000016141618161D202C161C0E90812520092
:104D3000C0E90A210163CB49416381637047800068
:104D4000A0F1C0400029016802D041F0010101E05A
:104D5000C54A11400160704710B5182440234FF038
:104D600020414FF0FC32102805D041F8804F4B60B5
:104D70008A60CA6010BD0C664B668A66CA6610BD42
:104D800030B5D0E901121143D0E903231A4311438E
:104D9000426941EA4221826941EA4231C26941F0F5
:104DA0000804D2E9001341EA03211389127B1B0492
:104DB00043EA0262036A1143D3E9002542EA05226D
:104DC0001D891B7B2D0445EA03631A4303684FF0DA
:104DD0002040102B04D040F8804F8160C26030BD6D
:104DE00004668166C26630BD102101600021416009
:104DF0008160C160016141618161C269FC21116012
:104E0000C2695160C2699160C269D160026A116071
:104E1000026A5160026A9160006AC16070474FF097
:104E2000204251B1102804D052F8800F40F0040005
:104E30000AE0106E40F004000AE08B49C91E1028F9
:104E400004D052F8800F084010607047106E084080
:104E5000106670474FF0204251B1102804D052F82C
:104E6000800F40F040000AE0106E40F040000AE081
:104E70007D493F39102804D052F8800F0840106057
:104E80007047106E0840106670474FF020411028A0
:104E900002D0D1F894007047486F70474FF020401F
:104EA000182140F8A01F002141604FF0FC318160C3
:104EB000C1600161704710B5D0E9001241EA422299
:104EC0008168102343EA41310A434FF0204141F801
:104ED000A02FC268D2E9003443EA04231489127B6C
:104EE000240444EA026213438B600269D2E900346D
:104EF00043EA04231489127B240444EA0262134324
:104F0000CB604069D0E9002342EA03220389007B99
:104F10001B0443EA006002430A6110BD00210160E6
:104F200041608160C268FC211160C2685160C26842
:104F30009160C268D16002691160026951600269C2
:104F400091600269D16042691160426951604269B1
:104F500091604069C16070474FF02041002851F8CE
:104F6000A00F02D040F0040002E03F4AD21E1040E1
:104F70000860704710B54FF480744FF0204372B151
:104F8000102804D0A04205D153F8840F04E0586ED5
:104F900008430DE053F8A40F0843186010BD102813
:104FA00004D0A04206D153F8840F05E0586E884320
:104FB000586610BD53F8A40F8843EEE7034600205F
:104FC0004FF02042102B08D0B3F5807F07D0D2F8E5
:104FD000A4200A4200D001207047526EF9E7D2F8AF
:104FE0008420F6E74FF02042102807D0B0F5807FEC
:104FF00008D052F8A40F884310607047506E884361
:105000005066704752F8840FF5E7034600204FF0D2
:105010002042102B0CD0B3F5807F0BD0D2F8A42007
:105020000A4202EAD10102D0002900D001207047D3
:10503000526EF5E7D2F88420F2E74FF020421028B4
:1050400008D0B0F5807F0AD052F8A40F20EAD10032
:1050500010607047506E20EAD1005066704752F8D9
:10506000840FF3E724040208FEFF0F00824910B505
:10507000884206D10121084600F0AFFA0021012044
:105080005BE07E49884206D10121022000F0A5FAAA
:105090000021022051E07A49884206D101210420F2
:1050A00000F09BFA0021042047E07649884206D1AF
:1050B0000121082000F091FA002108203DE072490A
:1050C000884206D10121102000F087FA002110202B
:1050D00033E06E49884206D10121202000F07DFA9C
:1050E0000021202029E06A49884206D10121402080
:1050F00000F073FA002140201FE06649884206D183
:105100000121802000F069FA0021802015E0624929
:10511000884202D1012184150AE06049884202D107
:105120000121441504E05E4988420AD10121041599
:10513000204600F052FA00212046BDE8104000F061
:105140004CBA10BDF0B50023012403270D6804FA02
:1051500003F21540954242D1D0F800C05E0007FA34
:1051600006F52CEA050CC0F800C091F804C0D0F890
:1051700000E00CFA06FC4CEA0E0CC0F800C091F8F6
:1051800004C0BCF1010F02D0BCF1020F1FD1D0F856
:1051900008C02CEA050CC0F808C091F805C0D0F88A
:1051A00008E00CFA06FC4CEA0E0CC0F808C0D0F877
:1051B00004C02CEA020CC0F804C0426891F806C092
:1051C0000CFA03FC1FFA8CFC42EA0C024260C26833
:1051D000AA43C260CA79C568B2402A43C2605B1C58
:1051E000102BB3D3F0BD4FF6FF71016000210171A8
:1051F00041718171C171704708B541F480320092EC
:10520000C261C1610099C161C169C069009008BDF6
:105210000246002012690A4200D00120704700694E
:1052200080B270470246002052690A4200D0012035
:105230007047406980B2704701837047418370476F
:105240000AB10183704741837047416170474269E9
:105250004A40426170474B07DB0E9A40C90810B5BF
:1052600000EB8100016A0F249C40A1430162016AA6
:105270001143016210BD0000000002400004024022
:1052800000080240000C02400010024000140240DE
:1052900000180240001C024000200240002402408E
:1052A00000280240F848016841F001010160F64A17
:1052B0000021083211600268F44B1A400260031D9D
:1052C000F34A1A60F04BF34A84331A60F04A103AFA
:1052D0001B1D1A60026822F480220260EA480C302A
:1052E0000160181D01607047E7490022891C0A709F
:1052F0000870704702460020510901290CD002298C
:105300000CD0E1497431096802F01F020123934077
:105310000B4200D001207047DB49F4E7DA497031D5
:10532000F1E718B500204FF4A04400903120FFF7BA
:10533000E1FF0099491C0091A14201D00028F5D05D
:105340003120FFF7D7FF002800D0012018BDCE493B
:105350000A6822F0F80242EAC00008607047CE49AD
:1053600008607047C849002270310A700A7001282D
:1053700002D0042801D1052008707047C749086091
:10538000704741EA82115A0810B5C54B029C03EBE5
:1053900002421143014341EA0460BB49091D086010
:1053A00010BDBD4908667047800140EA0170B649EA
:1053B000843108607047B84988667047800140EAC8
:1053C0000160B14940EA0270883108607047B24913
:1053D00008677047B049C8647047AB4A0832136821
:1053E000084323F0EC63184310607047A64A083264
:1053F0001368084323F07843184310607047A24AAB
:105400000832116821F003010143116070479E4882
:105410000830006800F00C0070479B4A08321168A1
:1054200021F0F001014311607047974A083211687A
:1054300021F4E051014311607047934908310A6833
:1054400022F4604242EAC0000860704770B58E4A9C
:1054500008321168934C11F00C0104D06610042935
:1054600003D0082903D004601BE0066019E08649D8
:10547000091D0B68C3F380550B6803F03F0315B19A
:10548000B6FBF3F301E0B4FBF3F30C680968C4F373
:1054900088146343C1F30141491C4900B3FBF1F196
:1054A000016011680F2303EA11117F4B5C5C0168F6
:1054B000E14041601468072505EA94241C5D21FA47
:1054C00004F48460126805EA52329A5CD140C160EB
:1054D00070BDC0F30121032908D16B4A083211685D
:1054E00021F4F81371490140194311606649703184
:1054F0000A68C0F30B0002430A60704767494439E9
:105500000860704765494039086070476249C1F8D2
:105510005C0170475C4A8C321168401E21F01F010B
:1055200001431160704758498C310A686FF0FF03DE
:1055300022F4F85203EB0020104308607047524AEF
:105540008C32116821F440110143116070474E4ABA
:105550008C32116821F440010143116070474A4ABE
:105560008C32116821F44031014311607047504979
:10557000C1F8E0017047444A30320029116801D077
:10558000014300E08143116070473F4A34320029F3
:10559000116801D0014300E08143116070473A4A2D
:1055A00038320029116801D0014300E081431160C5
:1055B0007047354A40320029116801D0014300E0AC
:1055C000814311607047304A44320029116801D08C
:1055D000014300E08143116070472B4A10320029DB
:1055E000116801D0014300E0814311607047264AF1
:1055F00014320029116801D0014300E08143116099
:105600007047214A18320029116801D0014300E097
:105610008143116070471C4A20320029116801D073
:10562000014300E0814311607047174A243200298A
:10563000116801D0014300E0814311607047124AB4
:1056400050320029116801D0014300E0814311600C
:1056500070470D4A54320029116801D0014300E01F
:10566000814311607047084A58320029116801D0FF
:10567000014300E0814311607047034A6032002912
:10568000116817D0014316E000380240FFFFF6EA28
:10569000103000240030002000004742800E4742B6
:1056A0000000FFFF0024F400AD000020FFFCFF0F0E
:1056B00000104742814311607047194A0029116860
:1056C00001D0014300E081431160704714490C315F
:1056D0000128086803D020F008000860704740F0F7
:1056E0000800FAE70E4A573A0029117801D0014321
:1056F00000E081431170704709481030016841F0A3
:105700008071016070470146054A0020583A1268CE
:105710000A4200D00120704701495639087070478D
:1057200064380240FE4910B5884206D1012108467E
:10573000FFF77BFF002101205BE0B0F1804F09D033
:10574000F84988420DD101210220FFF764FF0021B2
:10575000022070E001210846FFF75DFF00210120D3
:1057600069E0F149884206D101210420FFF753FF87
:10577000002104205FE0ED49884206D10121082084
:10578000FFF749FF0021082055E0E949884206D18A
:1057900001211020FFF73FFF002110204BE0E549D9
:1057A000884206D101212020FFF735FF002120206B
:1057B00041E0E149884206D101210220FFF735FF8F
:1057C0000021022015E0DD49884202D101210C04AC
:1057D0000AE0DB49884202D101214C0404E0D949A6
:1057E00088420AD101218C042046FFF71EFF0021C8
:1057F0002046BDE81040FFF718BFD349884206D1C4
:1058000001214020FFF707FF0021402013E0CF498E
:10581000884206D101218020FFF7FDFE0021802073
:1058200009E0CB4988420AD1841501212046FFF7BF
:10583000F2FE00212046BDE81040FFF7ECBE10BD8F
:1058400030B50288B64BBC4C98420DD0A0420BD06C
:10585000B0F1804F08D0B34DA84205D0B24DA84258
:1058600002D0B24DA84203D122F070054A882A43E3
:10587000AF4DA84206D0AF4DA84203D022F44075E8
:105880000A892A4302804A68C2620A8802859842CD
:1058900001D0A04201D1897A01860121818230BDE7
:1058A0004FF0FF3141600021018001814180817210
:1058B0007047018582827047028822F070020A4395
:1058C0000280704741627047C1627047406A70470A
:1058D000008D70470029018802D041F0020101E0EB
:1058E00021F00201018070470029018802D041F0B7
:1058F000040101E021F004010180704700290188C2
:1059000002D041F0800101E021F080010180704768
:10591000028822F00802028002880A43028070474F
:10592000028822F44072028002880A430280704793
:105930000029018802D041F0010101E021F00101BC
:105940000180704730B5028C22F001020284028C83
:105950008388048B22F0020224F073050C882C4308
:105960008D8915434A882A436D4DA84202D0724D55
:10597000A8420DD122F00805CA8923F440732A43B6
:1059800022F004058A882A430D8A1D434B8A2B4343
:105990008380048389684163028430BD70B5028CC2
:1059A00022F010020284028C8488038B0D8823F479
:1059B000E6464FF6FF7303EA052535438E8922F04C
:1059C000200203EA061616434A8803EA021232430B
:1059D000534EB04202D0584EB04215D122F080064C
:1059E000CA8924F4406403EA0212324322F04006DA
:1059F0008A8803EA021232430E8A03EA86062643A5
:105A00004C8A03EA84043443848005838968816373
:105A1000028470BD70B5028C22F480720284028C04
:105A20008488838B0D8823F073031D4322F4007355
:105A30008E894FF6FF7202EA06261E434B8802EA61
:105A400003233343364EB04202D03B4EB04215D111
:105A500023F40066CB8924F4405402EA0323334341
:105A600023F480668B8802EA032333430E8A02EA1A
:105A7000061626434C8A02EA041434438480858344
:105A80008968C163038470BD70B5028C22F48052B2
:105A90000284048C8288838B0D8823F4E6464FF6BB
:105AA000FF7303EA0525354324F400568C8903EA85
:105AB000043434434E8803EA06362643184CA04289
:105AC00002D01D4CA04205D122F480440A8A03EA88
:105AD000821222438280858389680164068470BDB6
